{
  "contractName": "WineHouse",
  "abi": [
    {
      "constant": true,
      "inputs": [
        {
          "name": "",
          "type": "uint256"
        }
      ],
      "name": "wineIndices",
      "outputs": [
        {
          "name": "",
          "type": "bytes32"
        }
      ],
      "payable": false,
      "stateMutability": "view",
      "type": "function"
    },
    {
      "constant": true,
      "inputs": [],
      "name": "owner",
      "outputs": [
        {
          "name": "",
          "type": "address"
        }
      ],
      "payable": false,
      "stateMutability": "view",
      "type": "function"
    },
    {
      "inputs": [],
      "payable": false,
      "stateMutability": "nonpayable",
      "type": "constructor"
    },
    {
      "anonymous": false,
      "inputs": [
        {
          "indexed": false,
          "name": "_ownerAddress",
          "type": "address"
        },
        {
          "indexed": false,
          "name": "_name",
          "type": "string"
        }
      ],
      "name": "NewWineOwner",
      "type": "event"
    },
    {
      "anonymous": false,
      "inputs": [
        {
          "indexed": false,
          "name": "_partnerAddress",
          "type": "address"
        },
        {
          "indexed": false,
          "name": "_name",
          "type": "string"
        }
      ],
      "name": "NewTrustedPartner",
      "type": "event"
    },
    {
      "anonymous": false,
      "inputs": [
        {
          "indexed": false,
          "name": "_partnerAddress",
          "type": "address"
        }
      ],
      "name": "RemovedTrustedPartner",
      "type": "event"
    },
    {
      "anonymous": false,
      "inputs": [
        {
          "indexed": false,
          "name": "_uniqueIdentifier",
          "type": "bytes32"
        }
      ],
      "name": "NewWine",
      "type": "event"
    },
    {
      "anonymous": false,
      "inputs": [
        {
          "indexed": false,
          "name": "_to",
          "type": "address"
        },
        {
          "indexed": false,
          "name": "_uniqueIdentifier",
          "type": "bytes32"
        }
      ],
      "name": "WineTransfer",
      "type": "event"
    },
    {
      "constant": false,
      "inputs": [
        {
          "name": "_to",
          "type": "address"
        }
      ],
      "name": "transferContract",
      "outputs": [],
      "payable": false,
      "stateMutability": "nonpayable",
      "type": "function"
    },
    {
      "constant": true,
      "inputs": [],
      "name": "getWineCount",
      "outputs": [
        {
          "name": "count",
          "type": "uint256"
        }
      ],
      "payable": false,
      "stateMutability": "view",
      "type": "function"
    },
    {
      "constant": true,
      "inputs": [
        {
          "name": "_wineOwner",
          "type": "address"
        }
      ],
      "name": "getOwnedWineCountOf",
      "outputs": [
        {
          "name": "",
          "type": "uint256"
        }
      ],
      "payable": false,
      "stateMutability": "view",
      "type": "function"
    },
    {
      "constant": true,
      "inputs": [
        {
          "name": "_wineOwner",
          "type": "address"
        },
        {
          "name": "_index",
          "type": "uint256"
        }
      ],
      "name": "getWineIdentifierAt",
      "outputs": [
        {
          "name": "",
          "type": "bytes32"
        }
      ],
      "payable": false,
      "stateMutability": "view",
      "type": "function"
    },
    {
      "constant": true,
      "inputs": [
        {
          "name": "_uniqueIdentifier",
          "type": "bytes32"
        },
        {
          "name": "_index",
          "type": "uint256"
        }
      ],
      "name": "getOwnerHistoryAt",
      "outputs": [
        {
          "name": "",
          "type": "address"
        }
      ],
      "payable": false,
      "stateMutability": "view",
      "type": "function"
    },
    {
      "constant": true,
      "inputs": [
        {
          "name": "_uniqueIdentifier",
          "type": "bytes32"
        }
      ],
      "name": "getOwnerHistoryCountOf",
      "outputs": [
        {
          "name": "count",
          "type": "uint256"
        }
      ],
      "payable": false,
      "stateMutability": "view",
      "type": "function"
    },
    {
      "constant": false,
      "inputs": [
        {
          "name": "_ownerAddress",
          "type": "address"
        },
        {
          "name": "_name",
          "type": "string"
        },
        {
          "name": "_proofOfIdentity",
          "type": "string"
        }
      ],
      "name": "registerWineOwner",
      "outputs": [
        {
          "name": "",
          "type": "address"
        },
        {
          "name": "",
          "type": "string"
        },
        {
          "name": "",
          "type": "bool"
        }
      ],
      "payable": false,
      "stateMutability": "nonpayable",
      "type": "function"
    },
    {
      "constant": true,
      "inputs": [
        {
          "name": "_ownerAddress",
          "type": "address"
        }
      ],
      "name": "getWineOwner",
      "outputs": [
        {
          "name": "",
          "type": "address"
        },
        {
          "name": "",
          "type": "string"
        },
        {
          "name": "",
          "type": "bool"
        },
        {
          "name": "",
          "type": "string"
        }
      ],
      "payable": false,
      "stateMutability": "view",
      "type": "function"
    },
    {
      "constant": false,
      "inputs": [
        {
          "name": "_partnerAddress",
          "type": "address"
        },
        {
          "name": "_name",
          "type": "string"
        },
        {
          "name": "_proofOfIdentity",
          "type": "string"
        }
      ],
      "name": "addTrustedPartner",
      "outputs": [
        {
          "name": "",
          "type": "address"
        },
        {
          "name": "",
          "type": "bool"
        }
      ],
      "payable": false,
      "stateMutability": "nonpayable",
      "type": "function"
    },
    {
      "constant": true,
      "inputs": [
        {
          "name": "_partner",
          "type": "address"
        }
      ],
      "name": "getTrustedPartner",
      "outputs": [
        {
          "name": "",
          "type": "address"
        },
        {
          "name": "",
          "type": "bool"
        }
      ],
      "payable": false,
      "stateMutability": "view",
      "type": "function"
    },
    {
      "constant": false,
      "inputs": [
        {
          "name": "_partner",
          "type": "address"
        }
      ],
      "name": "removeTrustedPartner",
      "outputs": [
        {
          "name": "",
          "type": "address"
        },
        {
          "name": "",
          "type": "bool"
        }
      ],
      "payable": false,
      "stateMutability": "nonpayable",
      "type": "function"
    },
    {
      "constant": false,
      "inputs": [
        {
          "name": "_cork",
          "type": "string"
        },
        {
          "name": "_capsule",
          "type": "string"
        },
        {
          "name": "_glass",
          "type": "string"
        },
        {
          "name": "_frontLabel",
          "type": "string"
        },
        {
          "name": "_backLabel",
          "type": "string"
        },
        {
          "name": "_bottle",
          "type": "string"
        },
        {
          "name": "_uniqueIdentifier",
          "type": "bytes32"
        }
      ],
      "name": "createWine",
      "outputs": [
        {
          "name": "index",
          "type": "uint256"
        },
        {
          "name": "uniqueIdentifier",
          "type": "bytes32"
        },
        {
          "name": "isActive",
          "type": "bool"
        }
      ],
      "payable": false,
      "stateMutability": "nonpayable",
      "type": "function"
    },
    {
      "constant": false,
      "inputs": [
        {
          "name": "_to",
          "type": "address"
        },
        {
          "name": "_uniqueIdentifier",
          "type": "bytes32"
        }
      ],
      "name": "transferWine",
      "outputs": [],
      "payable": false,
      "stateMutability": "nonpayable",
      "type": "function"
    },
    {
      "constant": true,
      "inputs": [
        {
          "name": "_uniqueIdentifier",
          "type": "bytes32"
        }
      ],
      "name": "retrieveWineData",
      "outputs": [
        {
          "name": "cork",
          "type": "string"
        },
        {
          "name": "capsule",
          "type": "string"
        },
        {
          "name": "glass",
          "type": "string"
        },
        {
          "name": "frontLabel",
          "type": "string"
        },
        {
          "name": "backLabel",
          "type": "string"
        },
        {
          "name": "bottle",
          "type": "string"
        },
        {
          "name": "currentOwner",
          "type": "address"
        }
      ],
      "payable": false,
      "stateMutability": "view",
      "type": "function"
    }
  ],
  "bytecode": "0x608060405234801561001057600080fd5b50336000806101000a81548173ffffffffffffffffffffffffffffffffffffffff021916908373ffffffffffffffffffffffffffffffffffffffff160217905550612f8a806100606000396000f3006080604052600436106100e6576000357c0100000000000000000000000000000000000000000000000000000000900463ffffffff1680633813a7f2146100eb57806341cbd6ea1461015457806347635dac146101e25780635cae7767146102255780635e3e9158146102b35780636faa52b3146104b65780637c33414e146105315780638da5cb5b1461057a5780639c4fc41a146105d1578063a052c595146105fc578063a9aac3e414610716578063af52fbed1461089c578063cde25f8a14610b95578063def0defa14610cfb578063e7ff890114610d40578063eee1f5f914610d91575b600080fd5b3480156100f757600080fd5b50610136600480360381019080803573ffffffffffffffffffffffffffffffffffffffff16906020019092919080359060200190929190505050610de8565b60405180826000191660001916815260200191505060405180910390f35b34801561016057600080fd5b50610195600480360381019080803573ffffffffffffffffffffffffffffffffffffffff169060200190929190505050610e4c565b604051808373ffffffffffffffffffffffffffffffffffffffff1673ffffffffffffffffffffffffffffffffffffffff168152602001821515151581526020019250505060405180910390f35b3480156101ee57600080fd5b50610223600480360381019080803573ffffffffffffffffffffffffffffffffffffffff169060200190929190505050610ea6565b005b34801561023157600080fd5b50610266600480360381019080803573ffffffffffffffffffffffffffffffffffffffff169060200190929190505050610f44565b604051808373ffffffffffffffffffffffffffffffffffffffff1673ffffffffffffffffffffffffffffffffffffffff168152602001821515151581526020019250505060405180910390f35b3480156102bf57600080fd5b50610486600480360381019080803590602001908201803590602001908080601f0160208091040260200160405190810160405280939291908181526020018383808284378201915050505050509192919290803590602001908201803590602001908080601f0160208091040260200160405190810160405280939291908181526020018383808284378201915050505050509192919290803590602001908201803590602001908080601f0160208091040260200160405190810160405280939291908181526020018383808284378201915050505050509192919290803590602001908201803590602001908080601f0160208091040260200160405190810160405280939291908181526020018383808284378201915050505050509192919290803590602001908201803590602001908080601f0160208091040260200160405190810160405280939291908181526020018383808284378201915050505050509192919290803590602001908201803590602001908080601f016020809104026020016040519081016040528093929190818152602001838380828437820191505050505050919291929080356000191690602001909291905050506110b4565b60405180848152602001836000191660001916815260200182151515158152602001935050505060405180910390f35b3480156104c257600080fd5b506104ef6004803603810190808035600019169060200190929190803590602001909291905050506119f6565b604051808273ffffffffffffffffffffffffffffffffffffffff1673ffffffffffffffffffffffffffffffffffffffff16815260200191505060405180910390f35b34801561053d57600080fd5b5061055c60048036038101908080359060200190929190505050611a56565b60405180826000191660001916815260200191505060405180910390f35b34801561058657600080fd5b5061058f611a79565b604051808273ffffffffffffffffffffffffffffffffffffffff1673ffffffffffffffffffffffffffffffffffffffff16815260200191505060405180910390f35b3480156105dd57600080fd5b506105e6611a9e565b6040518082815260200191505060405180910390f35b34801561060857600080fd5b506106c9600480360381019080803573ffffffffffffffffffffffffffffffffffffffff169060200190929190803590602001908201803590602001908080601f0160208091040260200160405190810160405280939291908181526020018383808284378201915050505050509192919290803590602001908201803590602001908080601f0160208091040260200160405190810160405280939291908181526020018383808284378201915050505050509192919290505050611aab565b604051808373ffffffffffffffffffffffffffffffffffffffff1673ffffffffffffffffffffffffffffffffffffffff168152602001821515151581526020019250505060405180910390f35b34801561072257600080fd5b506107e3600480360381019080803573ffffffffffffffffffffffffffffffffffffffff169060200190929190803590602001908201803590602001908080601f0160208091040260200160405190810160405280939291908181526020018383808284378201915050505050509192919290803590602001908201803590602001908080601f0160208091040260200160405190810160405280939291908181526020018383808284378201915050505050509192919290505050611da2565b604051808473ffffffffffffffffffffffffffffffffffffffff1673ffffffffffffffffffffffffffffffffffffffff1681526020018060200183151515158152602001828103825284818151815260200191508051906020019080838360005b8381101561085f578082015181840152602081019050610844565b50505050905090810190601f16801561088c5780820380516001836020036101000a031916815260200191505b5094505050505060405180910390f35b3480156108a857600080fd5b506108cb600480360381019080803560001916906020019092919050505061211a565b604051808060200180602001806020018060200180602001806020018873ffffffffffffffffffffffffffffffffffffffff1673ffffffffffffffffffffffffffffffffffffffff16815260200187810387528e818151815260200191508051906020019080838360005b83811015610951578082015181840152602081019050610936565b50505050905090810190601f16801561097e5780820380516001836020036101000a031916815260200191505b5087810386528d818151815260200191508051906020019080838360005b838110156109b757808201518184015260208101905061099c565b50505050905090810190601f1680156109e45780820380516001836020036101000a031916815260200191505b5087810385528c818151815260200191508051906020019080838360005b83811015610a1d578082015181840152602081019050610a02565b50505050905090810190601f168015610a4a5780820380516001836020036101000a031916815260200191505b5087810384528b818151815260200191508051906020019080838360005b83811015610a83578082015181840152602081019050610a68565b50505050905090810190601f168015610ab05780820380516001836020036101000a031916815260200191505b5087810383528a818151815260200191508051906020019080838360005b83811015610ae9578082015181840152602081019050610ace565b50505050905090810190601f168015610b165780820380516001836020036101000a031916815260200191505b50878103825289818151815260200191508051906020019080838360005b83811015610b4f578082015181840152602081019050610b34565b50505050905090810190601f168015610b7c5780820380516001836020036101000a031916815260200191505b509d505050505050505050505050505060405180910390f35b348015610ba157600080fd5b50610bd6600480360381019080803573ffffffffffffffffffffffffffffffffffffffff1690602001909291905050506125d9565b604051808573ffffffffffffffffffffffffffffffffffffffff1673ffffffffffffffffffffffffffffffffffffffff168152602001806020018415151515815260200180602001838103835286818151815260200191508051906020019080838360005b83811015610c56578082015181840152602081019050610c3b565b50505050905090810190601f168015610c835780820380516001836020036101000a031916815260200191505b50838103825284818151815260200191508051906020019080838360005b83811015610cbc578082015181840152602081019050610ca1565b50505050905090810190601f168015610ce95780820380516001836020036101000a031916815260200191505b50965050505050505060405180910390f35b348015610d0757600080fd5b50610d2a60048036038101908080356000191690602001909291905050506127fd565b6040518082815260200191505060405180910390f35b348015610d4c57600080fd5b50610d8f600480360381019080803573ffffffffffffffffffffffffffffffffffffffff1690602001909291908035600019169060200190929190505050612828565b005b348015610d9d57600080fd5b50610dd2600480360381019080803573ffffffffffffffffffffffffffffffffffffffff169060200190929190505050612e19565b6040518082815260200191505060405180910390f35b6000600460008473ffffffffffffffffffffffffffffffffffffffff1673ffffffffffffffffffffffffffffffffffffffff16815260200190815260200160002060030182815481101515610e3957fe5b9060005260206000200154905092915050565b60008082600360008573ffffffffffffffffffffffffffffffffffffffff1673ffffffffffffffffffffffffffffffffffffffff16815260200190815260200160002060009054906101000a900460ff1691509150915091565b6000809054906101000a900473ffffffffffffffffffffffffffffffffffffffff1673ffffffffffffffffffffffffffffffffffffffff163373ffffffffffffffffffffffffffffffffffffffff16141515610f0157600080fd5b806000806101000a81548173ffffffffffffffffffffffffffffffffffffffff021916908373ffffffffffffffffffffffffffffffffffffffff16021790555050565b6000806000809054906101000a900473ffffffffffffffffffffffffffffffffffffffff1673ffffffffffffffffffffffffffffffffffffffff163373ffffffffffffffffffffffffffffffffffffffff16141515610fa257600080fd5b6000600360008573ffffffffffffffffffffffffffffffffffffffff1673ffffffffffffffffffffffffffffffffffffffff16815260200190815260200160002060006101000a81548160ff0219169083151502179055507fa7c8fe5bc0df3d140e1fbc203a5e0d799f63207ed5b5766e691f89056a4bf95483604051808273ffffffffffffffffffffffffffffffffffffffff1673ffffffffffffffffffffffffffffffffffffffff16815260200191505060405180910390a182600360008573ffffffffffffffffffffffffffffffffffffffff1673ffffffffffffffffffffffffffffffffffffffff16815260200190815260200160002060009054906101000a900460ff1691509150915091565b60008060008060011515600360003373ffffffffffffffffffffffffffffffffffffffff1673ffffffffffffffffffffffffffffffffffffffff16815260200190815260200160002060009054906101000a900460ff16151514151561111957600080fd5b846000151560026000836000191660001916815260200190815260200160002060090160009054906101000a900460ff16151514151561115857600080fd5b87878c8e8c8e6040516020018087805190602001908083835b6020831015156111965780518252602082019150602081019050602083039250611171565b6001836020036101000a038019825116818451168082178552505050505050905001807f7c0000000000000000000000000000000000000000000000000000000000000081525060010186805190602001908083835b60208310151561121157805182526020820191506020810190506020830392506111ec565b6001836020036101000a038019825116818451168082178552505050505050905001807f7c0000000000000000000000000000000000000000000000000000000000000081525060010185805190602001908083835b60208310151561128c5780518252602082019150602081019050602083039250611267565b6001836020036101000a038019825116818451168082178552505050505050905001807f7c0000000000000000000000000000000000000000000000000000000000000081525060010184805190602001908083835b60208310151561130757805182526020820191506020810190506020830392506112e2565b6001836020036101000a038019825116818451168082178552505050505050905001807f7c0000000000000000000000000000000000000000000000000000000000000081525060010183805190602001908083835b602083101515611382578051825260208201915060208101905060208303925061135d565b6001836020036101000a038019825116818451168082178552505050505050905001807f7c0000000000000000000000000000000000000000000000000000000000000081525060010182805190602001908083835b6020831015156113fd57805182526020820191506020810190506020830392506113d8565b6001836020036101000a03801982511681845116808217855250505050505090500196505050505050506040516020818303038152906040526040518082805190602001908083835b60208310151561146b5780518252602082019150602081019050602083039250611446565b6001836020036101000a03801982511681845116808217855250505050505090500191505060405180910390209150856040516020018082600019166000191681526020019150506040516020818303038152906040526040518082805190602001908083835b6020831015156114f757805182526020820191506020810190506020830392506114d2565b6001836020036101000a038019825116818451168082178552505050505050905001915050604051809103902060001916826040516020018082600019166000191681526020019150506040516020818303038152906040526040518082805190602001908083835b6020831015156115855780518252602082019150602081019050602083039250611560565b6001836020036101000a0380198251168184511680821785525050505050509050019150506040518091039020600019161415156115c257600080fd5b8b60026000886000191660001916815260200190815260200160002060000190805190602001906115f4929190612e68565b508a6002600088600019166000191681526020019081526020016000206001019080519060200190611627929190612e68565b5089600260008860001916600019168152602001908152602001600020600201908051906020019061165a929190612e68565b5088600260008860001916600019168152602001908152602001600020600301908051906020019061168d929190612e68565b508760026000886000191660001916815260200190815260200160002060040190805190602001906116c0929190612e68565b508660026000886000191660001916815260200190815260200160002060050190805190602001906116f3929190612e68565b503360026000886000191660001916815260200190815260200160002060060160006101000a81548173ffffffffffffffffffffffffffffffffffffffff021916908373ffffffffffffffffffffffffffffffffffffffff160217905550600160026000886000191660001916815260200190815260200160002060090160006101000a81548160ff0219169083151502179055506001805490506002600088600019166000191681526020019081526020016000206008018190555060018690806001815401808255809150509060018203906000526020600020016000909192909190915090600019169055506001600460003373ffffffffffffffffffffffffffffffffffffffff1673ffffffffffffffffffffffffffffffffffffffff1681526020019081526020016000206004016000886000191660001916815260200190815260200160002060006101000a81548160ff021916908315150217905550600460003373ffffffffffffffffffffffffffffffffffffffff1673ffffffffffffffffffffffffffffffffffffffff168152602001908152602001600020600301869080600181540180825580915050906001820390600052602060002001600090919290919091509060001916905550600460003373ffffffffffffffffffffffffffffffffffffffff1673ffffffffffffffffffffffffffffffffffffffff16815260200190815260200160002060030180549050600460003373ffffffffffffffffffffffffffffffffffffffff1673ffffffffffffffffffffffffffffffffffffffff16815260200190815260200160002060050160008860001916600019168152602001908152602001600020819055507f205f3ca59041c7ae4156d794a1e5830d6f2a802d70359c5d736eca3b8671b7a78660405180826000191660001916815260200191505060405180910390a160018080549050038660026000896000191660001916815260200190815260200160002060090160009054906101000a900460ff1694509450945050509750975097945050505050565b600060026000846000191660001916815260200190815260200160002060070182815481101515611a2357fe5b9060005260206000200160009054906101000a900473ffffffffffffffffffffffffffffffffffffffff16905092915050565b600181815481101515611a6557fe5b906000526020600020016000915090505481565b6000809054906101000a900473ffffffffffffffffffffffffffffffffffffffff1681565b6000600180549050905090565b6000806000809054906101000a900473ffffffffffffffffffffffffffffffffffffffff1673ffffffffffffffffffffffffffffffffffffffff163373ffffffffffffffffffffffffffffffffffffffff16141515611b0957600080fd5b6001600360008773ffffffffffffffffffffffffffffffffffffffff1673ffffffffffffffffffffffffffffffffffffffff16815260200190815260200160002060006101000a81548160ff02191690831515021790555083600460008773ffffffffffffffffffffffffffffffffffffffff1673ffffffffffffffffffffffffffffffffffffffff1681526020019081526020016000206000019080519060200190611bb7929190612e68565b506001600460008773ffffffffffffffffffffffffffffffffffffffff1673ffffffffffffffffffffffffffffffffffffffff16815260200190815260200160002060020160006101000a81548160ff02191690831515021790555082600460008773ffffffffffffffffffffffffffffffffffffffff1673ffffffffffffffffffffffffffffffffffffffff1681526020019081526020016000206001019080519060200190611c69929190612e68565b50611c75858585611da2565b5050507fc4168fc24d026da668cfc85f6a651dad0d5fb01abf66062ee0b11cf60530a9f68585604051808373ffffffffffffffffffffffffffffffffffffffff1673ffffffffffffffffffffffffffffffffffffffff16815260200180602001828103825283818151815260200191508051906020019080838360005b83811015611d0d578082015181840152602081019050611cf2565b50505050905090810190601f168015611d3a5780820380516001836020036101000a031916815260200191505b50935050505060405180910390a184600360008773ffffffffffffffffffffffffffffffffffffffff1673ffffffffffffffffffffffffffffffffffffffff16815260200190815260200160002060009054906101000a900460ff1691509150935093915050565b6000606060008060009054906101000a900473ffffffffffffffffffffffffffffffffffffffff1673ffffffffffffffffffffffffffffffffffffffff163373ffffffffffffffffffffffffffffffffffffffff16141515611e0357600080fd5b84600460008873ffffffffffffffffffffffffffffffffffffffff1673ffffffffffffffffffffffffffffffffffffffff1681526020019081526020016000206000019080519060200190611e59929190612e68565b506001600460008873ffffffffffffffffffffffffffffffffffffffff1673ffffffffffffffffffffffffffffffffffffffff16815260200190815260200160002060020160006101000a81548160ff02191690831515021790555083600460008873ffffffffffffffffffffffffffffffffffffffff1673ffffffffffffffffffffffffffffffffffffffff1681526020019081526020016000206001019080519060200190611f0b929190612e68565b507f3f89ca8cf1638048276f9342a6f767e3fe64b000b403b933c5075fc982e463368686604051808373ffffffffffffffffffffffffffffffffffffffff1673ffffffffffffffffffffffffffffffffffffffff16815260200180602001828103825283818151815260200191508051906020019080838360005b83811015611fa1578082015181840152602081019050611f86565b50505050905090810190601f168015611fce5780820380516001836020036101000a031916815260200191505b50935050505060405180910390a185600460008873ffffffffffffffffffffffffffffffffffffffff1673ffffffffffffffffffffffffffffffffffffffff168152602001908152602001600020600001600460008973ffffffffffffffffffffffffffffffffffffffff1673ffffffffffffffffffffffffffffffffffffffff16815260200190815260200160002060020160009054906101000a900460ff16818054600181600116156101000203166002900480601f0160208091040260200160405190810160405280929190818152602001828054600181600116156101000203166002900480156121045780601f106120d957610100808354040283529160200191612104565b820191906000526020600020905b8154815290600101906020018083116120e757829003601f168201915b5050505050915092509250925093509350939050565b6060806060806060806000600260008960001916600019168152602001908152602001600020600001600260008a60001916600019168152602001908152602001600020600101600260008b60001916600019168152602001908152602001600020600201600260008c60001916600019168152602001908152602001600020600301600260008d60001916600019168152602001908152602001600020600401600260008e60001916600019168152602001908152602001600020600501600260008f6000191660001916815260200190815260200160002060060160009054906101000a900473ffffffffffffffffffffffffffffffffffffffff16868054600181600116156101000203166002900480601f0160208091040260200160405190810160405280929190818152602001828054600181600116156101000203166002900480156122ad5780601f10612282576101008083540402835291602001916122ad565b820191906000526020600020905b81548152906001019060200180831161229057829003601f168201915b50505050509650858054600181600116156101000203166002900480601f0160208091040260200160405190810160405280929190818152602001828054600181600116156101000203166002900480156123495780601f1061231e57610100808354040283529160200191612349565b820191906000526020600020905b81548152906001019060200180831161232c57829003601f168201915b50505050509550848054600181600116156101000203166002900480601f0160208091040260200160405190810160405280929190818152602001828054600181600116156101000203166002900480156123e55780601f106123ba576101008083540402835291602001916123e5565b820191906000526020600020905b8154815290600101906020018083116123c857829003601f168201915b50505050509450838054600181600116156101000203166002900480601f0160208091040260200160405190810160405280929190818152602001828054600181600116156101000203166002900480156124815780601f1061245657610100808354040283529160200191612481565b820191906000526020600020905b81548152906001019060200180831161246457829003601f168201915b50505050509350828054600181600116156101000203166002900480601f01602080910402602001604051908101604052809291908181526020018280546001816001161561010002031660029004801561251d5780601f106124f25761010080835404028352916020019161251d565b820191906000526020600020905b81548152906001019060200180831161250057829003601f168201915b50505050509250818054600181600116156101000203166002900480601f0160208091040260200160405190810160405280929190818152602001828054600181600116156101000203166002900480156125b95780601f1061258e576101008083540402835291602001916125b9565b820191906000526020600020905b81548152906001019060200180831161259c57829003601f168201915b505050505091509650965096509650965096509650919395979092949650565b600060606000606084600460008773ffffffffffffffffffffffffffffffffffffffff1673ffffffffffffffffffffffffffffffffffffffff168152602001908152602001600020600001600460008873ffffffffffffffffffffffffffffffffffffffff1673ffffffffffffffffffffffffffffffffffffffff16815260200190815260200160002060020160009054906101000a900460ff16600460008973ffffffffffffffffffffffffffffffffffffffff1673ffffffffffffffffffffffffffffffffffffffff168152602001908152602001600020600101828054600181600116156101000203166002900480601f01602080910402602001604051908101604052809291908181526020018280546001816001161561010002031660029004801561274b5780601f106127205761010080835404028352916020019161274b565b820191906000526020600020905b81548152906001019060200180831161272e57829003601f168201915b50505050509250808054600181600116156101000203166002900480601f0160208091040260200160405190810160405280929190818152602001828054600181600116156101000203166002900480156127e75780601f106127bc576101008083540402835291602001916127e7565b820191906000526020600020905b8154815290600101906020018083116127ca57829003601f168201915b5050505050905093509350935093509193509193565b6000600260008360001916600019168152602001908152602001600020600701805490509050919050565b60008060008360011515600460003373ffffffffffffffffffffffffffffffffffffffff1673ffffffffffffffffffffffffffffffffffffffff1681526020019081526020016000206004016000836000191660001916815260200190815260200160002060009054906101000a900460ff1615151415156128a957600080fd5b60011515600460003373ffffffffffffffffffffffffffffffffffffffff1673ffffffffffffffffffffffffffffffffffffffff16815260200190815260200160002060020160009054906101000a900460ff16151514151561290b57600080fd5b60026000866000191660001916815260200190815260200160002060070160026000876000191660001916815260200190815260200160002060060160009054906101000a900473ffffffffffffffffffffffffffffffffffffffff1690806001815401808255809150509060018203906000526020600020016000909192909190916101000a81548173ffffffffffffffffffffffffffffffffffffffff021916908373ffffffffffffffffffffffffffffffffffffffff1602179055505060006004600060026000896000191660001916815260200190815260200160002060060160009054906101000a900473ffffffffffffffffffffffffffffffffffffffff1673ffffffffffffffffffffffffffffffffffffffff1673ffffffffffffffffffffffffffffffffffffffff1681526020019081526020016000206004016000876000191660001916815260200190815260200160002060006101000a81548160ff0219169083151502179055508560026000876000191660001916815260200190815260200160002060060160006101000a81548173ffffffffffffffffffffffffffffffffffffffff021916908373ffffffffffffffffffffffffffffffffffffffff160217905550612ae333612e19565b93506001600460003373ffffffffffffffffffffffffffffffffffffffff1673ffffffffffffffffffffffffffffffffffffffff1681526020019081526020016000206005016000876000191660001916815260200190815260200160002054039250600460003373ffffffffffffffffffffffffffffffffffffffff1673ffffffffffffffffffffffffffffffffffffffff16815260200190815260200160002060030160018503815481101515612b9857fe5b9060005260206000200154915081600460003373ffffffffffffffffffffffffffffffffffffffff1673ffffffffffffffffffffffffffffffffffffffff16815260200190815260200160002060030184815481101515612bf557fe5b90600052602060002001816000191690555060018403600460003373ffffffffffffffffffffffffffffffffffffffff1673ffffffffffffffffffffffffffffffffffffffff16815260200190815260200160002060030181612c589190612ee8565b50600460008773ffffffffffffffffffffffffffffffffffffffff1673ffffffffffffffffffffffffffffffffffffffff1681526020019081526020016000206003018590806001815401808255809150509060018203906000526020600020016000909192909190915090600019169055506001600460008873ffffffffffffffffffffffffffffffffffffffff1673ffffffffffffffffffffffffffffffffffffffff1681526020019081526020016000206004016000876000191660001916815260200190815260200160002060006101000a81548160ff021916908315150217905550600460003373ffffffffffffffffffffffffffffffffffffffff1673ffffffffffffffffffffffffffffffffffffffff16815260200190815260200160002060050160008660001916600019168152602001908152602001600020600090557f68ece2e6e18e271ec173fcd796ce2ce105fb091067d28bfbd36dbb2a179fb08c8686604051808373ffffffffffffffffffffffffffffffffffffffff1673ffffffffffffffffffffffffffffffffffffffff16815260200182600019166000191681526020019250505060405180910390a1505050505050565b6000600460008373ffffffffffffffffffffffffffffffffffffffff1673ffffffffffffffffffffffffffffffffffffffff168152602001908152602001600020600301805490509050919050565b828054600181600116156101000203166002900490600052602060002090601f016020900481019282601f10612ea957805160ff1916838001178555612ed7565b82800160010185558215612ed7579182015b82811115612ed6578251825591602001919060010190612ebb565b5b509050612ee49190612f14565b5090565b815481835581811115612f0f57818360005260206000209182019101612f0e9190612f39565b5b505050565b612f3691905b80821115612f32576000816000905550600101612f1a565b5090565b90565b612f5b91905b80821115612f57576000816000905550600101612f3f565b5090565b905600a165627a7a7230582052cfca13bb5476b282b9165c2e6cee3496e035829930d81d5d97f9eceb54b04b0029",
  "source": "pragma solidity ^0.4.21;\n\ncontract WineHouse {\n    address public owner;\n    bytes32[] public wineIndices;\n    mapping (bytes32 => WineData) private wines;\n    mapping (address => bool) private trustedPartners;\n    mapping (address => OwnerInfo) private wineOwners;\n    \n    constructor() public {\n        owner = msg.sender;\n    }\n    \n    struct OwnerInfo {\n        string name;\n        string proofOfIdentity;\n        bool isVerified;\n        bytes32[] ownedWines;\n        mapping (bytes32 => bool) wines;\n        mapping (bytes32 => uint) ownedWinesIndices;\n    }\n    \n    struct WineData {\n        string cork;\n        string capsule;\n        string glass;\n        string frontLabel;\n        string backLabel;\n        string bottle;\n        address currentOwner;\n        address[] ownerHistory;\n        uint index;\n        bool isActive;\n    }\n\n    function transferContract(address _to) public onlyMaster {\n        owner = _to;\n    }\n    \n    modifier onlyMaster() {\n        require(msg.sender == owner);\n        _;\n    }\n    \n    modifier onlyTrustedPartner() {\n        require(trustedPartners[msg.sender] == true);\n        _;\n    }\n    \n    modifier onlyAssetOwner(bytes32 _uniqueIdentifier) {\n        require(wineOwners[msg.sender].wines[_uniqueIdentifier] == true);\n        _;\n    }\n    \n    modifier onlyVerified() {\n        require(wineOwners[msg.sender].isVerified == true);\n        _;\n    }\n\n    modifier wineShouldNotExist(bytes32 _uniqueIdentifier) {\n        require(wines[_uniqueIdentifier].isActive == false);\n        _;\n    }\n    \n    function getWineCount() view public returns (uint count) {\n        return wineIndices.length;\n    }\n\n    function getOwnedWineCountOf(address _wineOwner) view public returns (uint) {\n        return wineOwners[_wineOwner].ownedWines.length;\n    }\n\n    function getWineIdentifierAt(address _wineOwner, uint _index) view public returns (bytes32) {\n        return wineOwners[_wineOwner].ownedWines[_index];\n    }\n\n    function getOwnerHistoryAt(bytes32 _uniqueIdentifier, uint _index) view public returns (address) {\n        return wines[_uniqueIdentifier].ownerHistory[_index];\n    }\n\n    function getOwnerHistoryCountOf(bytes32 _uniqueIdentifier) view public returns (uint count) {\n        return wines[_uniqueIdentifier].ownerHistory.length;\n    }\n\n    event NewWineOwner(address _ownerAddress, string _name);\n    event NewTrustedPartner(address _partnerAddress, string _name);\n    event RemovedTrustedPartner(address _partnerAddress);\n    event NewWine(bytes32 _uniqueIdentifier);\n    event WineTransfer(address _to, bytes32 _uniqueIdentifier);\n    \n    // ===============================================================\n    \n    function registerWineOwner(\n        address _ownerAddress, \n        string _name,\n        string _proofOfIdentity\n        ) public onlyMaster\n        returns (\n            address, string, bool\n        ) {\n        \n        wineOwners[_ownerAddress].name = _name;\n        wineOwners[_ownerAddress].isVerified = true;\n        wineOwners[_ownerAddress].proofOfIdentity = _proofOfIdentity;\n\n        emit NewWineOwner(_ownerAddress, _name);\n\n        return (\n            _ownerAddress, \n            wineOwners[_ownerAddress].name, \n            wineOwners[_ownerAddress].isVerified\n        );\n\n    }\n\n    function getWineOwner(address _ownerAddress) view public returns (address, string, bool, string) {\n        return (\n            _ownerAddress,\n            wineOwners[_ownerAddress].name,\n            wineOwners[_ownerAddress].isVerified,\n            wineOwners[_ownerAddress].proofOfIdentity\n        );\n    }\n    \n    function addTrustedPartner(address _partnerAddress, string _name, string _proofOfIdentity) public onlyMaster returns (address, bool) {\n        trustedPartners[_partnerAddress] = true;\n        wineOwners[_partnerAddress].name = _name;\n        wineOwners[_partnerAddress].isVerified = true;\n        wineOwners[_partnerAddress].proofOfIdentity = _proofOfIdentity;\n        registerWineOwner(_partnerAddress, _name, _proofOfIdentity);\n        \n        emit NewTrustedPartner(_partnerAddress, _name);\n\n        return (_partnerAddress, trustedPartners[_partnerAddress]);\n    }\n\n    function getTrustedPartner(address _partner) view public returns (address, bool) {\n        return (_partner, trustedPartners[_partner]);\n    }\n    \n    function removeTrustedPartner(address _partner) public onlyMaster returns (address ,bool) {\n        trustedPartners[_partner] = false;\n\n        emit RemovedTrustedPartner(_partner);\n\n        return (_partner, trustedPartners[_partner]);\n    }\n    \n    function createWine(\n        string _cork,\n        string _capsule,\n        string _glass,\n        string _frontLabel,\n        string _backLabel,\n        string _bottle,\n        bytes32 _uniqueIdentifier\n    ) public onlyTrustedPartner wineShouldNotExist(_uniqueIdentifier)\n        returns (\n            uint index, \n            bytes32 uniqueIdentifier, \n            bool isActive\n        ) {\n        \n        bytes32 uniqueIdentCheck = keccak256(abi.encodePacked(_backLabel, \"|\",  _bottle, \"|\", _capsule, \"|\", _cork, \"|\", _frontLabel, \"|\", _glass));\n            \n        require(\n            keccak256(abi.encodePacked(uniqueIdentCheck)) == keccak256(abi.encodePacked(_uniqueIdentifier))\n        );\n        \n        wines[_uniqueIdentifier].cork = _cork;\n        wines[_uniqueIdentifier].capsule = _capsule;\n        wines[_uniqueIdentifier].glass = _glass;\n        wines[_uniqueIdentifier].frontLabel = _frontLabel;\n        wines[_uniqueIdentifier].backLabel = _backLabel;\n        wines[_uniqueIdentifier].bottle = _bottle;\n        \n        wines[_uniqueIdentifier].currentOwner = msg.sender;\n        \n        wines[_uniqueIdentifier].isActive = true;\n        wines[_uniqueIdentifier].index = wineIndices.length;\n        \n        wineIndices.push(_uniqueIdentifier);\n\n        wineOwners[msg.sender].wines[_uniqueIdentifier] = true;\n        wineOwners[msg.sender].ownedWines.push(_uniqueIdentifier);\n        wineOwners[msg.sender].ownedWinesIndices[_uniqueIdentifier] = wineOwners[msg.sender].ownedWines.length;\n\n        emit NewWine(_uniqueIdentifier);\n        \n        return (wineIndices.length - 1, _uniqueIdentifier, wines[_uniqueIdentifier].isActive);\n    }\n    \n    function transferWine(address _to, bytes32 _uniqueIdentifier) \n        public onlyAssetOwner(_uniqueIdentifier) onlyVerified() {\n            \n        wines[_uniqueIdentifier].ownerHistory.push(wines[_uniqueIdentifier].currentOwner);\n        wineOwners[wines[_uniqueIdentifier].currentOwner].wines[_uniqueIdentifier] = false;\n        \n        wines[_uniqueIdentifier].currentOwner = _to;\n\n        uint totalElementCount = getOwnedWineCountOf(msg.sender);\n        uint index = wineOwners[msg.sender].ownedWinesIndices[_uniqueIdentifier] - 1;\n\n        bytes32 lastElement = wineOwners[msg.sender].ownedWines[totalElementCount - 1];\n        wineOwners[msg.sender].ownedWines[index] = lastElement;\n        wineOwners[msg.sender].ownedWines.length = totalElementCount - 1;\n\n        wineOwners[_to].ownedWines.push(_uniqueIdentifier);\n        wineOwners[_to].wines[_uniqueIdentifier] = true;\n\n        delete wineOwners[msg.sender].ownedWinesIndices[_uniqueIdentifier];\n\n        emit WineTransfer(_to, _uniqueIdentifier);\n    }\n    \n    function retrieveWineData(bytes32 _uniqueIdentifier) view public \n        returns (\n            string cork,\n            string capsule,\n            string glass,\n            string frontLabel,\n            string backLabel,\n            string bottle,\n            address currentOwner\n        ) {\n        return (\n            wines[_uniqueIdentifier].cork,\n            wines[_uniqueIdentifier].capsule,\n            wines[_uniqueIdentifier].glass,\n            wines[_uniqueIdentifier].frontLabel,\n            wines[_uniqueIdentifier].backLabel,\n            wines[_uniqueIdentifier].bottle,\n            wines[_uniqueIdentifier].currentOwner\n        );   \n    }\n}",
  "sourcePath": "/home/android-m8d8y15/WINE-HOUSE/solidity/contracts/WineHouse.sol",
  "compiler": {
    "name": "solc",
    "version": "0.4.23+commit.124ca40d.Emscripten.clang"
  },
  "schemaVersion": "2.0.0",
  "updatedAt": "2018-06-26T19:29:37.078Z"
}