{
  "contractName": "WineHouse",
  "abi": [
    {
      "constant": true,
      "inputs": [],
      "name": "owner",
      "outputs": [
        {
          "name": "",
          "type": "address"
        }
      ],
      "payable": false,
      "stateMutability": "view",
      "type": "function"
    },
    {
      "inputs": [],
      "payable": false,
      "stateMutability": "nonpayable",
      "type": "constructor"
    },
    {
      "anonymous": false,
      "inputs": [
        {
          "indexed": false,
          "name": "_ownerAddress",
          "type": "address"
        },
        {
          "indexed": false,
          "name": "_name",
          "type": "string"
        }
      ],
      "name": "NewWineOwner",
      "type": "event"
    },
    {
      "anonymous": false,
      "inputs": [
        {
          "indexed": false,
          "name": "_partnerAddress",
          "type": "address"
        },
        {
          "indexed": false,
          "name": "_name",
          "type": "string"
        }
      ],
      "name": "NewTrustedPartner",
      "type": "event"
    },
    {
      "anonymous": false,
      "inputs": [
        {
          "indexed": false,
          "name": "_partnerAddress",
          "type": "address"
        }
      ],
      "name": "RemovedTrustedPartner",
      "type": "event"
    },
    {
      "anonymous": false,
      "inputs": [
        {
          "indexed": false,
          "name": "_uniqueIdentifier",
          "type": "bytes32"
        }
      ],
      "name": "NewWine",
      "type": "event"
    },
    {
      "anonymous": false,
      "inputs": [
        {
          "indexed": false,
          "name": "_to",
          "type": "address"
        },
        {
          "indexed": false,
          "name": "_uniqueIdentifier",
          "type": "bytes32"
        }
      ],
      "name": "WineTransfer",
      "type": "event"
    },
    {
      "constant": true,
      "inputs": [],
      "name": "getWineCount",
      "outputs": [
        {
          "name": "count",
          "type": "uint256"
        }
      ],
      "payable": false,
      "stateMutability": "view",
      "type": "function"
    },
    {
      "constant": true,
      "inputs": [
        {
          "name": "_wineOwner",
          "type": "address"
        }
      ],
      "name": "getOwnedWineCountOf",
      "outputs": [
        {
          "name": "",
          "type": "uint256"
        }
      ],
      "payable": false,
      "stateMutability": "view",
      "type": "function"
    },
    {
      "constant": true,
      "inputs": [
        {
          "name": "_wineOwner",
          "type": "address"
        },
        {
          "name": "_index",
          "type": "uint256"
        }
      ],
      "name": "getWineIdentifierAt",
      "outputs": [
        {
          "name": "",
          "type": "bytes32"
        }
      ],
      "payable": false,
      "stateMutability": "view",
      "type": "function"
    },
    {
      "constant": true,
      "inputs": [
        {
          "name": "_uniqueIdentifier",
          "type": "bytes32"
        },
        {
          "name": "_index",
          "type": "uint256"
        }
      ],
      "name": "getOwnerHistoryAt",
      "outputs": [
        {
          "name": "",
          "type": "address"
        }
      ],
      "payable": false,
      "stateMutability": "view",
      "type": "function"
    },
    {
      "constant": true,
      "inputs": [
        {
          "name": "_uniqueIdentifier",
          "type": "bytes32"
        }
      ],
      "name": "getOwnerHistoryCountOf",
      "outputs": [
        {
          "name": "count",
          "type": "uint256"
        }
      ],
      "payable": false,
      "stateMutability": "view",
      "type": "function"
    },
    {
      "constant": false,
      "inputs": [
        {
          "name": "_ownerAddress",
          "type": "address"
        },
        {
          "name": "_name",
          "type": "string"
        },
        {
          "name": "_proofOfIdentity",
          "type": "string"
        }
      ],
      "name": "registerWineOwner",
      "outputs": [
        {
          "name": "",
          "type": "address"
        },
        {
          "name": "",
          "type": "string"
        },
        {
          "name": "",
          "type": "bool"
        }
      ],
      "payable": false,
      "stateMutability": "nonpayable",
      "type": "function"
    },
    {
      "constant": true,
      "inputs": [
        {
          "name": "_ownerAddress",
          "type": "address"
        }
      ],
      "name": "getWineOwner",
      "outputs": [
        {
          "name": "",
          "type": "address"
        },
        {
          "name": "",
          "type": "string"
        },
        {
          "name": "",
          "type": "bool"
        }
      ],
      "payable": false,
      "stateMutability": "view",
      "type": "function"
    },
    {
      "constant": false,
      "inputs": [
        {
          "name": "_partnerAddress",
          "type": "address"
        },
        {
          "name": "_name",
          "type": "string"
        },
        {
          "name": "_proofOfIdentity",
          "type": "string"
        }
      ],
      "name": "addTrustedPartner",
      "outputs": [
        {
          "name": "",
          "type": "address"
        },
        {
          "name": "",
          "type": "bool"
        }
      ],
      "payable": false,
      "stateMutability": "nonpayable",
      "type": "function"
    },
    {
      "constant": true,
      "inputs": [
        {
          "name": "_partner",
          "type": "address"
        }
      ],
      "name": "getTrustedPartner",
      "outputs": [
        {
          "name": "",
          "type": "address"
        },
        {
          "name": "",
          "type": "bool"
        }
      ],
      "payable": false,
      "stateMutability": "view",
      "type": "function"
    },
    {
      "constant": false,
      "inputs": [
        {
          "name": "_partner",
          "type": "address"
        }
      ],
      "name": "removeTrustedPartner",
      "outputs": [
        {
          "name": "",
          "type": "address"
        },
        {
          "name": "",
          "type": "bool"
        }
      ],
      "payable": false,
      "stateMutability": "nonpayable",
      "type": "function"
    },
    {
      "constant": false,
      "inputs": [
        {
          "name": "_cork",
          "type": "string"
        },
        {
          "name": "_capsule",
          "type": "string"
        },
        {
          "name": "_glass",
          "type": "string"
        },
        {
          "name": "_frontLabel",
          "type": "string"
        },
        {
          "name": "_backLabel",
          "type": "string"
        },
        {
          "name": "_bottle",
          "type": "string"
        },
        {
          "name": "_uniqueIdentifier",
          "type": "bytes32"
        }
      ],
      "name": "createWine",
      "outputs": [
        {
          "name": "index",
          "type": "uint256"
        },
        {
          "name": "uniqueIdentifier",
          "type": "bytes32"
        },
        {
          "name": "isActive",
          "type": "bool"
        }
      ],
      "payable": false,
      "stateMutability": "nonpayable",
      "type": "function"
    },
    {
      "constant": false,
      "inputs": [
        {
          "name": "_to",
          "type": "address"
        },
        {
          "name": "_uniqueIdentifier",
          "type": "bytes32"
        }
      ],
      "name": "transferWine",
      "outputs": [],
      "payable": false,
      "stateMutability": "nonpayable",
      "type": "function"
    },
    {
      "constant": true,
      "inputs": [
        {
          "name": "_uniqueIdentifier",
          "type": "bytes32"
        }
      ],
      "name": "retrieveWineData",
      "outputs": [
        {
          "name": "cork",
          "type": "string"
        },
        {
          "name": "capsule",
          "type": "string"
        },
        {
          "name": "glass",
          "type": "string"
        },
        {
          "name": "frontLabel",
          "type": "string"
        },
        {
          "name": "backLabel",
          "type": "string"
        },
        {
          "name": "bottle",
          "type": "string"
        },
        {
          "name": "currentOwner",
          "type": "address"
        }
      ],
      "payable": false,
      "stateMutability": "view",
      "type": "function"
    }
  ],
  "bytecode": "0x608060405234801561001057600080fd5b50336000806101000a81548173ffffffffffffffffffffffffffffffffffffffff021916908373ffffffffffffffffffffffffffffffffffffffff160217905550612c4a806100606000396000f3006080604052600436106100d0576000357c0100000000000000000000000000000000000000000000000000000000900463ffffffff1680633813a7f2146100d557806341cbd6ea1461013e5780635cae7767146101cc5780635e3e91581461025a5780636faa52b31461045d5780638da5cb5b146104d85780639c4fc41a1461052f578063a052c5951461055a578063a9aac3e414610674578063af52fbed146107fa578063cde25f8a14610af3578063def0defa14610bed578063e7ff890114610c32578063eee1f5f914610c83575b600080fd5b3480156100e157600080fd5b50610120600480360381019080803573ffffffffffffffffffffffffffffffffffffffff16906020019092919080359060200190929190505050610cda565b60405180826000191660001916815260200191505060405180910390f35b34801561014a57600080fd5b5061017f600480360381019080803573ffffffffffffffffffffffffffffffffffffffff169060200190929190505050610d3e565b604051808373ffffffffffffffffffffffffffffffffffffffff1673ffffffffffffffffffffffffffffffffffffffff168152602001821515151581526020019250505060405180910390f35b3480156101d857600080fd5b5061020d600480360381019080803573ffffffffffffffffffffffffffffffffffffffff169060200190929190505050610d98565b604051808373ffffffffffffffffffffffffffffffffffffffff1673ffffffffffffffffffffffffffffffffffffffff168152602001821515151581526020019250505060405180910390f35b34801561026657600080fd5b5061042d600480360381019080803590602001908201803590602001908080601f0160208091040260200160405190810160405280939291908181526020018383808284378201915050505050509192919290803590602001908201803590602001908080601f0160208091040260200160405190810160405280939291908181526020018383808284378201915050505050509192919290803590602001908201803590602001908080601f0160208091040260200160405190810160405280939291908181526020018383808284378201915050505050509192919290803590602001908201803590602001908080601f0160208091040260200160405190810160405280939291908181526020018383808284378201915050505050509192919290803590602001908201803590602001908080601f0160208091040260200160405190810160405280939291908181526020018383808284378201915050505050509192919290803590602001908201803590602001908080601f01602080910402602001604051908101604052809392919081815260200183838082843782019150505050505091929192908035600019169060200190929190505050610f08565b60405180848152602001836000191660001916815260200182151515158152602001935050505060405180910390f35b34801561046957600080fd5b506104966004803603810190808035600019169060200190929190803590602001909291905050506117a5565b604051808273ffffffffffffffffffffffffffffffffffffffff1673ffffffffffffffffffffffffffffffffffffffff16815260200191505060405180910390f35b3480156104e457600080fd5b506104ed611805565b604051808273ffffffffffffffffffffffffffffffffffffffff1673ffffffffffffffffffffffffffffffffffffffff16815260200191505060405180910390f35b34801561053b57600080fd5b5061054461182a565b6040518082815260200191505060405180910390f35b34801561056657600080fd5b50610627600480360381019080803573ffffffffffffffffffffffffffffffffffffffff169060200190929190803590602001908201803590602001908080601f0160208091040260200160405190810160405280939291908181526020018383808284378201915050505050509192919290803590602001908201803590602001908080601f0160208091040260200160405190810160405280939291908181526020018383808284378201915050505050509192919290505050611837565b604051808373ffffffffffffffffffffffffffffffffffffffff1673ffffffffffffffffffffffffffffffffffffffff168152602001821515151581526020019250505060405180910390f35b34801561068057600080fd5b50610741600480360381019080803573ffffffffffffffffffffffffffffffffffffffff169060200190929190803590602001908201803590602001908080601f0160208091040260200160405190810160405280939291908181526020018383808284378201915050505050509192919290803590602001908201803590602001908080601f0160208091040260200160405190810160405280939291908181526020018383808284378201915050505050509192919290505050611b2e565b604051808473ffffffffffffffffffffffffffffffffffffffff1673ffffffffffffffffffffffffffffffffffffffff1681526020018060200183151515158152602001828103825284818151815260200191508051906020019080838360005b838110156107bd5780820151818401526020810190506107a2565b50505050905090810190601f1680156107ea5780820380516001836020036101000a031916815260200191505b5094505050505060405180910390f35b34801561080657600080fd5b506108296004803603810190808035600019169060200190929190505050611ea6565b604051808060200180602001806020018060200180602001806020018873ffffffffffffffffffffffffffffffffffffffff1673ffffffffffffffffffffffffffffffffffffffff16815260200187810387528e818151815260200191508051906020019080838360005b838110156108af578082015181840152602081019050610894565b50505050905090810190601f1680156108dc5780820380516001836020036101000a031916815260200191505b5087810386528d818151815260200191508051906020019080838360005b838110156109155780820151818401526020810190506108fa565b50505050905090810190601f1680156109425780820380516001836020036101000a031916815260200191505b5087810385528c818151815260200191508051906020019080838360005b8381101561097b578082015181840152602081019050610960565b50505050905090810190601f1680156109a85780820380516001836020036101000a031916815260200191505b5087810384528b818151815260200191508051906020019080838360005b838110156109e15780820151818401526020810190506109c6565b50505050905090810190601f168015610a0e5780820380516001836020036101000a031916815260200191505b5087810383528a818151815260200191508051906020019080838360005b83811015610a47578082015181840152602081019050610a2c565b50505050905090810190601f168015610a745780820380516001836020036101000a031916815260200191505b50878103825289818151815260200191508051906020019080838360005b83811015610aad578082015181840152602081019050610a92565b50505050905090810190601f168015610ada5780820380516001836020036101000a031916815260200191505b509d505050505050505050505050505060405180910390f35b348015610aff57600080fd5b50610b34600480360381019080803573ffffffffffffffffffffffffffffffffffffffff169060200190929190505050612365565b604051808473ffffffffffffffffffffffffffffffffffffffff1673ffffffffffffffffffffffffffffffffffffffff1681526020018060200183151515158152602001828103825284818151815260200191508051906020019080838360005b83811015610bb0578082015181840152602081019050610b95565b50505050905090810190601f168015610bdd5780820380516001836020036101000a031916815260200191505b5094505050505060405180910390f35b348015610bf957600080fd5b50610c1c60048036038101908080356000191690602001909291905050506124a7565b6040518082815260200191505060405180910390f35b348015610c3e57600080fd5b50610c81600480360381019080803573ffffffffffffffffffffffffffffffffffffffff16906020019092919080356000191690602001909291905050506124d2565b005b348015610c8f57600080fd5b50610cc4600480360381019080803573ffffffffffffffffffffffffffffffffffffffff169060200190929190505050612ad9565b6040518082815260200191505060405180910390f35b6000600360008473ffffffffffffffffffffffffffffffffffffffff1673ffffffffffffffffffffffffffffffffffffffff16815260200190815260200160002060020182815481101515610d2b57fe5b9060005260206000200154905092915050565b60008082600260008573ffffffffffffffffffffffffffffffffffffffff1673ffffffffffffffffffffffffffffffffffffffff16815260200190815260200160002060009054906101000a900460ff1691509150915091565b6000806000809054906101000a900473ffffffffffffffffffffffffffffffffffffffff1673ffffffffffffffffffffffffffffffffffffffff163373ffffffffffffffffffffffffffffffffffffffff16141515610df657600080fd5b6000600260008573ffffffffffffffffffffffffffffffffffffffff1673ffffffffffffffffffffffffffffffffffffffff16815260200190815260200160002060006101000a81548160ff0219169083151502179055507fa7c8fe5bc0df3d140e1fbc203a5e0d799f63207ed5b5766e691f89056a4bf95483604051808273ffffffffffffffffffffffffffffffffffffffff1673ffffffffffffffffffffffffffffffffffffffff16815260200191505060405180910390a182600260008573ffffffffffffffffffffffffffffffffffffffff1673ffffffffffffffffffffffffffffffffffffffff16815260200190815260200160002060009054906101000a900460ff1691509150915091565b60008060008060011515600260003373ffffffffffffffffffffffffffffffffffffffff1673ffffffffffffffffffffffffffffffffffffffff16815260200190815260200160002060009054906101000a900460ff161515141515610f6d57600080fd5b846000151560016000836000191660001916815260200190815260200160002060090160009054906101000a900460ff161515141515610fac57600080fd5b87878c8e8c8e6040516020018087805190602001908083835b602083101515610fea5780518252602082019150602081019050602083039250610fc5565b6001836020036101000a038019825116818451168082178552505050505050905001807f7c0000000000000000000000000000000000000000000000000000000000000081525060010186805190602001908083835b6020831015156110655780518252602082019150602081019050602083039250611040565b6001836020036101000a038019825116818451168082178552505050505050905001807f7c0000000000000000000000000000000000000000000000000000000000000081525060010185805190602001908083835b6020831015156110e057805182526020820191506020810190506020830392506110bb565b6001836020036101000a038019825116818451168082178552505050505050905001807f7c0000000000000000000000000000000000000000000000000000000000000081525060010184805190602001908083835b60208310151561115b5780518252602082019150602081019050602083039250611136565b6001836020036101000a038019825116818451168082178552505050505050905001807f7c0000000000000000000000000000000000000000000000000000000000000081525060010183805190602001908083835b6020831015156111d657805182526020820191506020810190506020830392506111b1565b6001836020036101000a038019825116818451168082178552505050505050905001807f7c0000000000000000000000000000000000000000000000000000000000000081525060010182805190602001908083835b602083101515611251578051825260208201915060208101905060208303925061122c565b6001836020036101000a03801982511681845116808217855250505050505090500196505050505050506040516020818303038152906040526040518082805190602001908083835b6020831015156112bf578051825260208201915060208101905060208303925061129a565b6001836020036101000a03801982511681845116808217855250505050505090500191505060405180910390209150856040516020018082600019166000191681526020019150506040516020818303038152906040526040518082805190602001908083835b60208310151561134b5780518252602082019150602081019050602083039250611326565b6001836020036101000a038019825116818451168082178552505050505050905001915050604051809103902060001916826040516020018082600019166000191681526020019150506040516020818303038152906040526040518082805190602001908083835b6020831015156113d957805182526020820191506020810190506020830392506113b4565b6001836020036101000a03801982511681845116808217855250505050505090500191505060405180910390206000191614151561141657600080fd5b8b6001600088600019166000191681526020019081526020016000206000019080519060200190611448929190612b28565b508a600160008860001916600019168152602001908152602001600020600101908051906020019061147b929190612b28565b508960016000886000191660001916815260200190815260200160002060020190805190602001906114ae929190612b28565b508860016000886000191660001916815260200190815260200160002060030190805190602001906114e1929190612b28565b50876001600088600019166000191681526020019081526020016000206004019080519060200190611514929190612b28565b50866001600088600019166000191681526020019081526020016000206005019080519060200190611547929190612b28565b503360016000886000191660001916815260200190815260200160002060060160006101000a81548173ffffffffffffffffffffffffffffffffffffffff021916908373ffffffffffffffffffffffffffffffffffffffff1602179055506001806000886000191660001916815260200190815260200160002060090160006101000a81548160ff0219169083151502179055506004805490506001600088600019166000191681526020019081526020016000206008018190555060048690806001815401808255809150509060018203906000526020600020016000909192909190915090600019169055506001600360003373ffffffffffffffffffffffffffffffffffffffff1673ffffffffffffffffffffffffffffffffffffffff1681526020019081526020016000206001016000886000191660001916815260200190815260200160002060006101000a81548160ff021916908315150217905550600360003373ffffffffffffffffffffffffffffffffffffffff1673ffffffffffffffffffffffffffffffffffffffff1681526020019081526020016000206002018690806001815401808255809150509060018203906000526020600020016000909192909190915090600019169055507f205f3ca59041c7ae4156d794a1e5830d6f2a802d70359c5d736eca3b8671b7a78660405180826000191660001916815260200191505060405180910390a16001600480549050038660016000896000191660001916815260200190815260200160002060090160009054906101000a900460ff1694509450945050509750975097945050505050565b6000600160008460001916600019168152602001908152602001600020600701828154811015156117d257fe5b9060005260206000200160009054906101000a900473ffffffffffffffffffffffffffffffffffffffff16905092915050565b6000809054906101000a900473ffffffffffffffffffffffffffffffffffffffff1681565b6000600480549050905090565b6000806000809054906101000a900473ffffffffffffffffffffffffffffffffffffffff1673ffffffffffffffffffffffffffffffffffffffff163373ffffffffffffffffffffffffffffffffffffffff1614151561189557600080fd5b6001600260008773ffffffffffffffffffffffffffffffffffffffff1673ffffffffffffffffffffffffffffffffffffffff16815260200190815260200160002060006101000a81548160ff02191690831515021790555083600360008773ffffffffffffffffffffffffffffffffffffffff1673ffffffffffffffffffffffffffffffffffffffff1681526020019081526020016000206000019080519060200190611943929190612b28565b506001600360008773ffffffffffffffffffffffffffffffffffffffff1673ffffffffffffffffffffffffffffffffffffffff16815260200190815260200160002060030160006101000a81548160ff02191690831515021790555082600360008773ffffffffffffffffffffffffffffffffffffffff1673ffffffffffffffffffffffffffffffffffffffff16815260200190815260200160002060040190805190602001906119f5929190612b28565b50611a01858585611b2e565b5050507fc4168fc24d026da668cfc85f6a651dad0d5fb01abf66062ee0b11cf60530a9f68585604051808373ffffffffffffffffffffffffffffffffffffffff1673ffffffffffffffffffffffffffffffffffffffff16815260200180602001828103825283818151815260200191508051906020019080838360005b83811015611a99578082015181840152602081019050611a7e565b50505050905090810190601f168015611ac65780820380516001836020036101000a031916815260200191505b50935050505060405180910390a184600260008773ffffffffffffffffffffffffffffffffffffffff1673ffffffffffffffffffffffffffffffffffffffff16815260200190815260200160002060009054906101000a900460ff1691509150935093915050565b6000606060008060009054906101000a900473ffffffffffffffffffffffffffffffffffffffff1673ffffffffffffffffffffffffffffffffffffffff163373ffffffffffffffffffffffffffffffffffffffff16141515611b8f57600080fd5b84600360008873ffffffffffffffffffffffffffffffffffffffff1673ffffffffffffffffffffffffffffffffffffffff1681526020019081526020016000206000019080519060200190611be5929190612b28565b506001600360008873ffffffffffffffffffffffffffffffffffffffff1673ffffffffffffffffffffffffffffffffffffffff16815260200190815260200160002060030160006101000a81548160ff02191690831515021790555083600360008873ffffffffffffffffffffffffffffffffffffffff1673ffffffffffffffffffffffffffffffffffffffff1681526020019081526020016000206004019080519060200190611c97929190612b28565b507f3f89ca8cf1638048276f9342a6f767e3fe64b000b403b933c5075fc982e463368686604051808373ffffffffffffffffffffffffffffffffffffffff1673ffffffffffffffffffffffffffffffffffffffff16815260200180602001828103825283818151815260200191508051906020019080838360005b83811015611d2d578082015181840152602081019050611d12565b50505050905090810190601f168015611d5a5780820380516001836020036101000a031916815260200191505b50935050505060405180910390a185600360008873ffffffffffffffffffffffffffffffffffffffff1673ffffffffffffffffffffffffffffffffffffffff168152602001908152602001600020600001600360008973ffffffffffffffffffffffffffffffffffffffff1673ffffffffffffffffffffffffffffffffffffffff16815260200190815260200160002060030160009054906101000a900460ff16818054600181600116156101000203166002900480601f016020809104026020016040519081016040528092919081815260200182805460018160011615610100020316600290048015611e905780601f10611e6557610100808354040283529160200191611e90565b820191906000526020600020905b815481529060010190602001808311611e7357829003601f168201915b5050505050915092509250925093509350939050565b6060806060806060806000600160008960001916600019168152602001908152602001600020600001600160008a60001916600019168152602001908152602001600020600101600160008b60001916600019168152602001908152602001600020600201600160008c60001916600019168152602001908152602001600020600301600160008d60001916600019168152602001908152602001600020600401600160008e60001916600019168152602001908152602001600020600501600160008f6000191660001916815260200190815260200160002060060160009054906101000a900473ffffffffffffffffffffffffffffffffffffffff16868054600181600116156101000203166002900480601f0160208091040260200160405190810160405280929190818152602001828054600181600116156101000203166002900480156120395780601f1061200e57610100808354040283529160200191612039565b820191906000526020600020905b81548152906001019060200180831161201c57829003601f168201915b50505050509650858054600181600116156101000203166002900480601f0160208091040260200160405190810160405280929190818152602001828054600181600116156101000203166002900480156120d55780601f106120aa576101008083540402835291602001916120d5565b820191906000526020600020905b8154815290600101906020018083116120b857829003601f168201915b50505050509550848054600181600116156101000203166002900480601f0160208091040260200160405190810160405280929190818152602001828054600181600116156101000203166002900480156121715780601f1061214657610100808354040283529160200191612171565b820191906000526020600020905b81548152906001019060200180831161215457829003601f168201915b50505050509450838054600181600116156101000203166002900480601f01602080910402602001604051908101604052809291908181526020018280546001816001161561010002031660029004801561220d5780601f106121e25761010080835404028352916020019161220d565b820191906000526020600020905b8154815290600101906020018083116121f057829003601f168201915b50505050509350828054600181600116156101000203166002900480601f0160208091040260200160405190810160405280929190818152602001828054600181600116156101000203166002900480156122a95780601f1061227e576101008083540402835291602001916122a9565b820191906000526020600020905b81548152906001019060200180831161228c57829003601f168201915b50505050509250818054600181600116156101000203166002900480601f0160208091040260200160405190810160405280929190818152602001828054600181600116156101000203166002900480156123455780601f1061231a57610100808354040283529160200191612345565b820191906000526020600020905b81548152906001019060200180831161232857829003601f168201915b505050505091509650965096509650965096509650919395979092949650565b60006060600083600360008673ffffffffffffffffffffffffffffffffffffffff1673ffffffffffffffffffffffffffffffffffffffff168152602001908152602001600020600001600360008773ffffffffffffffffffffffffffffffffffffffff1673ffffffffffffffffffffffffffffffffffffffff16815260200190815260200160002060030160009054906101000a900460ff16818054600181600116156101000203166002900480601f0160208091040260200160405190810160405280929190818152602001828054600181600116156101000203166002900480156124935780601f1061246857610100808354040283529160200191612493565b820191906000526020600020905b81548152906001019060200180831161247657829003601f168201915b505050505091509250925092509193909250565b6000600160008360001916600019168152602001908152602001600020600701805490509050919050565b60008060008360011515600360003373ffffffffffffffffffffffffffffffffffffffff1673ffffffffffffffffffffffffffffffffffffffff1681526020019081526020016000206001016000836000191660001916815260200190815260200160002060009054906101000a900460ff16151514151561255357600080fd5b60011515600360003373ffffffffffffffffffffffffffffffffffffffff1673ffffffffffffffffffffffffffffffffffffffff16815260200190815260200160002060030160009054906101000a900460ff1615151415156125b557600080fd5b60016000866000191660001916815260200190815260200160002060070160016000876000191660001916815260200190815260200160002060060160009054906101000a900473ffffffffffffffffffffffffffffffffffffffff1690806001815401808255809150509060018203906000526020600020016000909192909190916101000a81548173ffffffffffffffffffffffffffffffffffffffff021916908373ffffffffffffffffffffffffffffffffffffffff1602179055505060006003600060016000896000191660001916815260200190815260200160002060060160009054906101000a900473ffffffffffffffffffffffffffffffffffffffff1673ffffffffffffffffffffffffffffffffffffffff1673ffffffffffffffffffffffffffffffffffffffff1681526020019081526020016000206001016000876000191660001916815260200190815260200160002060006101000a81548160ff0219169083151502179055508560016000876000191660001916815260200190815260200160002060060160006101000a81548173ffffffffffffffffffffffffffffffffffffffff021916908373ffffffffffffffffffffffffffffffffffffffff16021790555061278d33612ad9565b935060009250600092505b8383111515612865578383141515156127b057600080fd5b84604051808260001916600019168152602001915050604051809103902060001916600360003373ffffffffffffffffffffffffffffffffffffffff1673ffffffffffffffffffffffffffffffffffffffff1681526020019081526020016000206002018481548110151561282157fe5b9060005260206000200154604051808260001916600019168152602001915050604051809103902060001916141561285857612865565b8280600101935050612798565b600360003373ffffffffffffffffffffffffffffffffffffffff1673ffffffffffffffffffffffffffffffffffffffff168152602001908152602001600020600201600185038154811015156128b757fe5b9060005260206000200154915081600360003373ffffffffffffffffffffffffffffffffffffffff1673ffffffffffffffffffffffffffffffffffffffff1681526020019081526020016000206002018481548110151561291457fe5b90600052602060002001816000191690555060018403600360003373ffffffffffffffffffffffffffffffffffffffff1673ffffffffffffffffffffffffffffffffffffffff168152602001908152602001600020600201816129779190612ba8565b50600360008773ffffffffffffffffffffffffffffffffffffffff1673ffffffffffffffffffffffffffffffffffffffff1681526020019081526020016000206002018590806001815401808255809150509060018203906000526020600020016000909192909190915090600019169055506001600360008873ffffffffffffffffffffffffffffffffffffffff1673ffffffffffffffffffffffffffffffffffffffff1681526020019081526020016000206001016000876000191660001916815260200190815260200160002060006101000a81548160ff0219169083151502179055507f68ece2e6e18e271ec173fcd796ce2ce105fb091067d28bfbd36dbb2a179fb08c8686604051808373ffffffffffffffffffffffffffffffffffffffff1673ffffffffffffffffffffffffffffffffffffffff16815260200182600019166000191681526020019250505060405180910390a1505050505050565b6000600360008373ffffffffffffffffffffffffffffffffffffffff1673ffffffffffffffffffffffffffffffffffffffff168152602001908152602001600020600201805490509050919050565b828054600181600116156101000203166002900490600052602060002090601f016020900481019282601f10612b6957805160ff1916838001178555612b97565b82800160010185558215612b97579182015b82811115612b96578251825591602001919060010190612b7b565b5b509050612ba49190612bd4565b5090565b815481835581811115612bcf57818360005260206000209182019101612bce9190612bf9565b5b505050565b612bf691905b80821115612bf2576000816000905550600101612bda565b5090565b90565b612c1b91905b80821115612c17576000816000905550600101612bff565b5090565b905600a165627a7a7230582047deea8b0be730d7db3c99896e69d30956b79741c2814b62362d6bf5fa9667a60029",
  "source": "pragma solidity ^0.4.21;\n\ncontract WineHouse {\n    address public owner;\n    mapping (bytes32 => WineData) private wines;\n    mapping (address => bool) private trustedPartners;\n    mapping (address => OwnerInfo) private wineOwners;\n    bytes32[] private wineIndices;\n    \n    constructor() public {\n        owner = msg.sender;\n    }\n    \n    struct OwnerInfo {\n        string name;\n        mapping (bytes32 => bool) wines;\n        bytes32[] ownedWines;\n        bool isVerified;\n        string proofOfIdentity;\n    }\n    \n    struct WineData {\n        string cork;\n        string capsule;\n        string glass;\n        string frontLabel;\n        string backLabel;\n        string bottle;\n        address currentOwner;\n        address[] ownerHistory;\n        uint index;\n        bool isActive;\n    }\n    \n    modifier onlyMaster() {\n        require(msg.sender == owner);\n        _;\n    }\n    \n    modifier onlyTrustedPartner() {\n        require(trustedPartners[msg.sender] == true);\n        _;\n    }\n    \n    modifier onlyAssetOwner(bytes32 _uniqueIdentifier) {\n        require(wineOwners[msg.sender].wines[_uniqueIdentifier] == true);\n        _;\n    }\n    \n    modifier onlyVerified() {\n        require(wineOwners[msg.sender].isVerified == true);\n        _;\n    }\n\n    modifier wineShouldNotExist(bytes32 _uniqueIdentifier) {\n        require(wines[_uniqueIdentifier].isActive == false);\n        _;\n    }\n    \n    function getWineCount() view public returns (uint count) {\n        return wineIndices.length;\n    }\n\n    function getOwnedWineCountOf(address _wineOwner) view public returns (uint) {\n        return wineOwners[_wineOwner].ownedWines.length;\n    }\n\n    function getWineIdentifierAt(address _wineOwner, uint _index) view public returns (bytes32) {\n        return wineOwners[_wineOwner].ownedWines[_index];\n    }\n\n    function getOwnerHistoryAt(bytes32 _uniqueIdentifier, uint _index) view public returns (address) {\n        return wines[_uniqueIdentifier].ownerHistory[_index];\n    }\n\n    function getOwnerHistoryCountOf(bytes32 _uniqueIdentifier) view public returns (uint count) {\n        return wines[_uniqueIdentifier].ownerHistory.length;\n    }\n\n    event NewWineOwner(address _ownerAddress, string _name);\n    event NewTrustedPartner(address _partnerAddress, string _name);\n    event RemovedTrustedPartner(address _partnerAddress);\n    event NewWine(bytes32 _uniqueIdentifier);\n    event WineTransfer(address _to, bytes32 _uniqueIdentifier);\n    \n    // ===============================================================\n    \n    function registerWineOwner(\n        address _ownerAddress, \n        string _name,\n        string _proofOfIdentity\n        ) public onlyMaster\n        returns (\n            address, string, bool\n        ) {\n        \n        wineOwners[_ownerAddress].name = _name;\n        wineOwners[_ownerAddress].isVerified = true;\n        wineOwners[_ownerAddress].proofOfIdentity = _proofOfIdentity;\n\n        emit NewWineOwner(_ownerAddress, _name);\n\n        return (\n            _ownerAddress, \n            wineOwners[_ownerAddress].name, \n            wineOwners[_ownerAddress].isVerified\n        );\n\n    }\n\n    function getWineOwner(address _ownerAddress) view public returns (address, string, bool) {\n        return (\n            _ownerAddress,\n            wineOwners[_ownerAddress].name,\n            wineOwners[_ownerAddress].isVerified\n        );\n    }\n    \n    function addTrustedPartner(address _partnerAddress, string _name, string _proofOfIdentity) public onlyMaster returns (address, bool) {\n        trustedPartners[_partnerAddress] = true;\n        wineOwners[_partnerAddress].name = _name;\n        wineOwners[_partnerAddress].isVerified = true;\n        wineOwners[_partnerAddress].proofOfIdentity = _proofOfIdentity;\n        registerWineOwner(_partnerAddress, _name, _proofOfIdentity);\n        \n        emit NewTrustedPartner(_partnerAddress, _name);\n\n        return (_partnerAddress, trustedPartners[_partnerAddress]);\n    }\n\n    function getTrustedPartner(address _partner) view public returns (address, bool) {\n        return (_partner, trustedPartners[_partner]);\n    }\n    \n    function removeTrustedPartner(address _partner) public onlyMaster returns (address ,bool) {\n        trustedPartners[_partner] = false;\n\n        emit RemovedTrustedPartner(_partner);\n\n        return (_partner, trustedPartners[_partner]);\n    }\n    \n    function createWine(\n        string _cork,\n        string _capsule,\n        string _glass,\n        string _frontLabel,\n        string _backLabel,\n        string _bottle,\n        bytes32 _uniqueIdentifier\n    ) public onlyTrustedPartner wineShouldNotExist(_uniqueIdentifier)\n        returns (\n            uint index, \n            bytes32 uniqueIdentifier, \n            bool isActive\n        ) {\n        \n        bytes32 uniqueIdentCheck = keccak256(abi.encodePacked(_backLabel, \"|\",  _bottle, \"|\", _capsule, \"|\", _cork, \"|\", _frontLabel, \"|\", _glass));\n            \n        require(\n            keccak256(abi.encodePacked(uniqueIdentCheck)) == keccak256(abi.encodePacked(_uniqueIdentifier))\n        );\n        \n        wines[_uniqueIdentifier].cork = _cork;\n        wines[_uniqueIdentifier].capsule = _capsule;\n        wines[_uniqueIdentifier].glass = _glass;\n        wines[_uniqueIdentifier].frontLabel = _frontLabel;\n        wines[_uniqueIdentifier].backLabel = _backLabel;\n        wines[_uniqueIdentifier].bottle = _bottle;\n        \n        wines[_uniqueIdentifier].currentOwner = msg.sender;\n        \n        wines[_uniqueIdentifier].isActive = true;\n        wines[_uniqueIdentifier].index = wineIndices.length;\n        wineIndices.push(_uniqueIdentifier);\n        wineOwners[msg.sender].wines[_uniqueIdentifier] = true;\n        wineOwners[msg.sender].ownedWines.push(_uniqueIdentifier);\n\n        emit NewWine(_uniqueIdentifier);\n        \n        return (wineIndices.length - 1, _uniqueIdentifier, wines[_uniqueIdentifier].isActive);\n    }\n    \n    function transferWine(address _to, bytes32 _uniqueIdentifier) \n        public onlyAssetOwner(_uniqueIdentifier) onlyVerified() {\n            \n        wines[_uniqueIdentifier].ownerHistory.push(wines[_uniqueIdentifier].currentOwner);\n        wineOwners[wines[_uniqueIdentifier].currentOwner].wines[_uniqueIdentifier] = false;\n        \n        wines[_uniqueIdentifier].currentOwner = _to;\n\n        uint totalElementCount = getOwnedWineCountOf(msg.sender);\n        uint index = 0;\n        for (index = 0; index <= totalElementCount; index++) {\n            require(index != totalElementCount);\n            if (keccak256(wineOwners[msg.sender].ownedWines[index]) == keccak256(_uniqueIdentifier)) {\n                break;\n            }\n        }\n\n        bytes32 lastElement = wineOwners[msg.sender].ownedWines[totalElementCount - 1];\n        wineOwners[msg.sender].ownedWines[index] = lastElement;\n        wineOwners[msg.sender].ownedWines.length = totalElementCount - 1;\n\n        wineOwners[_to].ownedWines.push(_uniqueIdentifier);\n        wineOwners[_to].wines[_uniqueIdentifier] = true;\n\n        emit WineTransfer(_to, _uniqueIdentifier);\n    }\n    \n    function retrieveWineData(bytes32 _uniqueIdentifier) view public \n        returns (\n            string cork,\n            string capsule,\n            string glass,\n            string frontLabel,\n            string backLabel,\n            string bottle,\n            address currentOwner\n        ) {\n        return (\n            wines[_uniqueIdentifier].cork,\n            wines[_uniqueIdentifier].capsule,\n            wines[_uniqueIdentifier].glass,\n            wines[_uniqueIdentifier].frontLabel,\n            wines[_uniqueIdentifier].backLabel,\n            wines[_uniqueIdentifier].bottle,\n            wines[_uniqueIdentifier].currentOwner\n        );   \n    }\n}",
  "sourcePath": "/home/android-m8d8y15/WINE-HOUSE/solidity/contracts/WineHouse.sol",
  "compiler": {
    "name": "solc",
    "version": "0.4.23+commit.124ca40d.Emscripten.clang"
  },
  "schemaVersion": "2.0.0",
  "updatedAt": "2018-06-25T16:40:53.142Z"
}