{
  "contractName": "WineHouse",
  "abi": [
    {
      "constant": true,
      "inputs": [],
      "name": "owner",
      "outputs": [
        {
          "name": "",
          "type": "address"
        }
      ],
      "payable": false,
      "stateMutability": "view",
      "type": "function"
    },
    {
      "inputs": [],
      "payable": false,
      "stateMutability": "nonpayable",
      "type": "constructor"
    },
    {
      "anonymous": false,
      "inputs": [
        {
          "indexed": false,
          "name": "_ownerAddress",
          "type": "address"
        },
        {
          "indexed": false,
          "name": "_name",
          "type": "string"
        }
      ],
      "name": "NewWineOwner",
      "type": "event"
    },
    {
      "anonymous": false,
      "inputs": [
        {
          "indexed": false,
          "name": "_partnerAddress",
          "type": "address"
        },
        {
          "indexed": false,
          "name": "_name",
          "type": "string"
        }
      ],
      "name": "NewTrustedPartner",
      "type": "event"
    },
    {
      "anonymous": false,
      "inputs": [
        {
          "indexed": false,
          "name": "_partnerAddress",
          "type": "address"
        }
      ],
      "name": "RemovedTrustedPartner",
      "type": "event"
    },
    {
      "anonymous": false,
      "inputs": [
        {
          "indexed": false,
          "name": "_uniqueIdentifier",
          "type": "string"
        }
      ],
      "name": "NewWine",
      "type": "event"
    },
    {
      "anonymous": false,
      "inputs": [
        {
          "indexed": false,
          "name": "_to",
          "type": "address"
        },
        {
          "indexed": false,
          "name": "_uniqueIdentifier",
          "type": "string"
        }
      ],
      "name": "WineTransfer",
      "type": "event"
    },
    {
      "constant": true,
      "inputs": [],
      "name": "getWineCount",
      "outputs": [
        {
          "name": "count",
          "type": "uint256"
        }
      ],
      "payable": false,
      "stateMutability": "view",
      "type": "function"
    },
    {
      "constant": false,
      "inputs": [
        {
          "name": "_ownerAddress",
          "type": "address"
        },
        {
          "name": "_name",
          "type": "string"
        }
      ],
      "name": "registerWineOwner",
      "outputs": [
        {
          "name": "",
          "type": "address"
        },
        {
          "name": "",
          "type": "string"
        },
        {
          "name": "",
          "type": "bool"
        }
      ],
      "payable": false,
      "stateMutability": "nonpayable",
      "type": "function"
    },
    {
      "constant": true,
      "inputs": [
        {
          "name": "_ownerAddress",
          "type": "address"
        }
      ],
      "name": "getWineOwner",
      "outputs": [
        {
          "name": "",
          "type": "address"
        },
        {
          "name": "",
          "type": "string"
        },
        {
          "name": "",
          "type": "bool"
        }
      ],
      "payable": false,
      "stateMutability": "view",
      "type": "function"
    },
    {
      "constant": false,
      "inputs": [
        {
          "name": "_partnerAddress",
          "type": "address"
        },
        {
          "name": "_name",
          "type": "string"
        }
      ],
      "name": "addTrustedPartner",
      "outputs": [
        {
          "name": "",
          "type": "address"
        },
        {
          "name": "",
          "type": "bool"
        }
      ],
      "payable": false,
      "stateMutability": "nonpayable",
      "type": "function"
    },
    {
      "constant": true,
      "inputs": [
        {
          "name": "_partner",
          "type": "address"
        }
      ],
      "name": "getTrustedPartner",
      "outputs": [
        {
          "name": "",
          "type": "address"
        },
        {
          "name": "",
          "type": "bool"
        }
      ],
      "payable": false,
      "stateMutability": "view",
      "type": "function"
    },
    {
      "constant": false,
      "inputs": [
        {
          "name": "_partner",
          "type": "address"
        }
      ],
      "name": "removeTrustedPartner",
      "outputs": [
        {
          "name": "",
          "type": "address"
        },
        {
          "name": "",
          "type": "bool"
        }
      ],
      "payable": false,
      "stateMutability": "nonpayable",
      "type": "function"
    },
    {
      "constant": false,
      "inputs": [
        {
          "name": "_cork",
          "type": "string"
        },
        {
          "name": "_capsule",
          "type": "string"
        },
        {
          "name": "_glass",
          "type": "string"
        },
        {
          "name": "_frontLabel",
          "type": "string"
        },
        {
          "name": "_backLabel",
          "type": "string"
        },
        {
          "name": "_bottle",
          "type": "string"
        },
        {
          "name": "_uniqueIdentifier",
          "type": "string"
        }
      ],
      "name": "createWine",
      "outputs": [
        {
          "name": "index",
          "type": "uint256"
        },
        {
          "name": "uniqueIdentifier",
          "type": "string"
        },
        {
          "name": "isActive",
          "type": "bool"
        }
      ],
      "payable": false,
      "stateMutability": "nonpayable",
      "type": "function"
    },
    {
      "constant": false,
      "inputs": [
        {
          "name": "_to",
          "type": "address"
        },
        {
          "name": "_uniqueIdentifier",
          "type": "string"
        }
      ],
      "name": "transferWine",
      "outputs": [],
      "payable": false,
      "stateMutability": "nonpayable",
      "type": "function"
    },
    {
      "constant": true,
      "inputs": [
        {
          "name": "_uniqueIdentifier",
          "type": "string"
        }
      ],
      "name": "retrieve",
      "outputs": [
        {
          "name": "cork",
          "type": "string"
        },
        {
          "name": "capsule",
          "type": "string"
        },
        {
          "name": "glass",
          "type": "string"
        },
        {
          "name": "frontLabel",
          "type": "string"
        },
        {
          "name": "backLabel",
          "type": "string"
        },
        {
          "name": "bottle",
          "type": "string"
        },
        {
          "name": "currentOwner",
          "type": "address"
        }
      ],
      "payable": false,
      "stateMutability": "view",
      "type": "function"
    }
  ],
  "bytecode": "0x608060405234801561001057600080fd5b50336000806101000a81548173ffffffffffffffffffffffffffffffffffffffff021916908373ffffffffffffffffffffffffffffffffffffffff1602179055506128c2806100606000396000f3006080604052600436106100a4576000357c0100000000000000000000000000000000000000000000000000000000900463ffffffff1680631a1f383a146100a957806341cbd6ea146103415780635a2b21a8146103cf5780635cae7767146104a357806364cc7327146105315780638da5cb5b146108625780639c4fc41a146108b9578063a862077b146108e4578063ca6aea731461096d578063cde25f8a14610aad575b600080fd5b3480156100b557600080fd5b506102b4600480360381019080803590602001908201803590602001908080601f0160208091040260200160405190810160405280939291908181526020018383808284378201915050505050509192919290803590602001908201803590602001908080601f0160208091040260200160405190810160405280939291908181526020018383808284378201915050505050509192919290803590602001908201803590602001908080601f0160208091040260200160405190810160405280939291908181526020018383808284378201915050505050509192919290803590602001908201803590602001908080601f0160208091040260200160405190810160405280939291908181526020018383808284378201915050505050509192919290803590602001908201803590602001908080601f0160208091040260200160405190810160405280939291908181526020018383808284378201915050505050509192919290803590602001908201803590602001908080601f0160208091040260200160405190810160405280939291908181526020018383808284378201915050505050509192919290803590602001908201803590602001908080601f0160208091040260200160405190810160405280939291908181526020018383808284378201915050505050509192919290505050610ba7565b604051808481526020018060200183151515158152602001828103825284818151815260200191508051906020019080838360005b838110156103045780820151818401526020810190506102e9565b50505050905090810190601f1680156103315780820380516001836020036101000a031916815260200191505b5094505050505060405180910390f35b34801561034d57600080fd5b50610382600480360381019080803573ffffffffffffffffffffffffffffffffffffffff169060200190929190505050611391565b604051808373ffffffffffffffffffffffffffffffffffffffff1673ffffffffffffffffffffffffffffffffffffffff168152602001821515151581526020019250505060405180910390f35b3480156103db57600080fd5b50610456600480360381019080803573ffffffffffffffffffffffffffffffffffffffff169060200190929190803590602001908201803590602001908080601f01602080910402602001604051908101604052809392919081815260200183838082843782019150505050505091929192905050506113eb565b604051808373ffffffffffffffffffffffffffffffffffffffff1673ffffffffffffffffffffffffffffffffffffffff168152602001821515151581526020019250505060405180910390f35b3480156104af57600080fd5b506104e4600480360381019080803573ffffffffffffffffffffffffffffffffffffffff169060200190929190505050611689565b604051808373ffffffffffffffffffffffffffffffffffffffff1673ffffffffffffffffffffffffffffffffffffffff168152602001821515151581526020019250505060405180910390f35b34801561053d57600080fd5b50610598600480360381019080803590602001908201803590602001908080601f01602080910402602001604051908101604052809392919081815260200183838082843782019150505050505091929192905050506117f9565b604051808060200180602001806020018060200180602001806020018873ffffffffffffffffffffffffffffffffffffffff1673ffffffffffffffffffffffffffffffffffffffff16815260200187810387528e818151815260200191508051906020019080838360005b8381101561061e578082015181840152602081019050610603565b50505050905090810190601f16801561064b5780820380516001836020036101000a031916815260200191505b5087810386528d818151815260200191508051906020019080838360005b83811015610684578082015181840152602081019050610669565b50505050905090810190601f1680156106b15780820380516001836020036101000a031916815260200191505b5087810385528c818151815260200191508051906020019080838360005b838110156106ea5780820151818401526020810190506106cf565b50505050905090810190601f1680156107175780820380516001836020036101000a031916815260200191505b5087810384528b818151815260200191508051906020019080838360005b83811015610750578082015181840152602081019050610735565b50505050905090810190601f16801561077d5780820380516001836020036101000a031916815260200191505b5087810383528a818151815260200191508051906020019080838360005b838110156107b657808201518184015260208101905061079b565b50505050905090810190601f1680156107e35780820380516001836020036101000a031916815260200191505b50878103825289818151815260200191508051906020019080838360005b8381101561081c578082015181840152602081019050610801565b50505050905090810190601f1680156108495780820380516001836020036101000a031916815260200191505b509d505050505050505050505050505060405180910390f35b34801561086e57600080fd5b50610877611ee8565b604051808273ffffffffffffffffffffffffffffffffffffffff1673ffffffffffffffffffffffffffffffffffffffff16815260200191505060405180910390f35b3480156108c557600080fd5b506108ce611f0d565b6040518082815260200191505060405180910390f35b3480156108f057600080fd5b5061096b600480360381019080803573ffffffffffffffffffffffffffffffffffffffff169060200190929190803590602001908201803590602001908080601f0160208091040260200160405190810160405280939291908181526020018383808284378201915050505050509192919290505050611f1a565b005b34801561097957600080fd5b506109f4600480360381019080803573ffffffffffffffffffffffffffffffffffffffff169060200190929190803590602001908201803590602001908080601f016020809104026020016040519081016040528093929190818152602001838380828437820191505050505050919291929050505061232c565b604051808473ffffffffffffffffffffffffffffffffffffffff1673ffffffffffffffffffffffffffffffffffffffff1681526020018060200183151515158152602001828103825284818151815260200191508051906020019080838360005b83811015610a70578082015181840152602081019050610a55565b50505050905090810190601f168015610a9d5780820380516001836020036101000a031916815260200191505b5094505050505060405180910390f35b348015610ab957600080fd5b50610aee600480360381019080803573ffffffffffffffffffffffffffffffffffffffff1690602001909291905050506126af565b604051808473ffffffffffffffffffffffffffffffffffffffff1673ffffffffffffffffffffffffffffffffffffffff1681526020018060200183151515158152602001828103825284818151815260200191508051906020019080838360005b83811015610b6a578082015181840152602081019050610b4f565b50505050905090810190601f168015610b975780820380516001836020036101000a031916815260200191505b5094505050505060405180910390f35b60006060600060011515600260003373ffffffffffffffffffffffffffffffffffffffff1673ffffffffffffffffffffffffffffffffffffffff16815260200190815260200160002060009054906101000a900460ff161515141515610c0c57600080fd5b83600015156001826040518082805190602001908083835b602083101515610c495780518252602082019150602081019050602083039250610c24565b6001836020036101000a038019825116818451168082178552505050505050905001915050908152602001604051809103902060090160009054906101000a900460ff161515141515610c9b57600080fd5b8a6001866040518082805190602001908083835b602083101515610cd45780518252602082019150602081019050602083039250610caf565b6001836020036101000a03801982511681845116808217855250505050505090500191505090815260200160405180910390206000019080519060200190610d1d9291906127f1565b50896001866040518082805190602001908083835b602083101515610d575780518252602082019150602081019050602083039250610d32565b6001836020036101000a03801982511681845116808217855250505050505090500191505090815260200160405180910390206001019080519060200190610da09291906127f1565b50886001866040518082805190602001908083835b602083101515610dda5780518252602082019150602081019050602083039250610db5565b6001836020036101000a03801982511681845116808217855250505050505090500191505090815260200160405180910390206002019080519060200190610e239291906127f1565b50876001866040518082805190602001908083835b602083101515610e5d5780518252602082019150602081019050602083039250610e38565b6001836020036101000a03801982511681845116808217855250505050505090500191505090815260200160405180910390206003019080519060200190610ea69291906127f1565b50866001866040518082805190602001908083835b602083101515610ee05780518252602082019150602081019050602083039250610ebb565b6001836020036101000a03801982511681845116808217855250505050505090500191505090815260200160405180910390206004019080519060200190610f299291906127f1565b50856001866040518082805190602001908083835b602083101515610f635780518252602082019150602081019050602083039250610f3e565b6001836020036101000a03801982511681845116808217855250505050505090500191505090815260200160405180910390206005019080519060200190610fac9291906127f1565b50336001866040518082805190602001908083835b602083101515610fe65780518252602082019150602081019050602083039250610fc1565b6001836020036101000a038019825116818451168082178552505050505050905001915050908152602001604051809103902060060160006101000a81548173ffffffffffffffffffffffffffffffffffffffff021916908373ffffffffffffffffffffffffffffffffffffffff160217905550600180866040518082805190602001908083835b602083101515611093578051825260208201915060208101905060208303925061106e565b6001836020036101000a038019825116818451168082178552505050505050905001915050908152602001604051809103902060090160006101000a81548160ff0219169083151502179055506004805490506001866040518082805190602001908083835b60208310151561111e57805182526020820191506020810190506020830392506110f9565b6001836020036101000a03801982511681845116808217855250505050505090500191505090815260200160405180910390206008018190555060048590806001815401808255809150509060018203906000526020600020016000909192909190915090805190602001906111959291906127f1565b50506001600360003373ffffffffffffffffffffffffffffffffffffffff1673ffffffffffffffffffffffffffffffffffffffff168152602001908152602001600020600101866040518082805190602001908083835b60208310151561121157805182526020820191506020810190506020830392506111ec565b6001836020036101000a038019825116818451168082178552505050505050905001915050908152602001604051809103902060006101000a81548160ff0219169083151502179055507fc5c4e60c1bbf517a7aef27d8345fe6ba523d9b4192b478d853a41a865a2647fb856040518080602001828103825283818151815260200191508051906020019080838360005b838110156112bd5780820151818401526020810190506112a2565b50505050905090810190601f1680156112ea5780820380516001836020036101000a031916815260200191505b509250505060405180910390a1600160048054905003856001876040518082805190602001908083835b6020831015156113395780518252602082019150602081019050602083039250611314565b6001836020036101000a038019825116818451168082178552505050505050905001915050908152602001604051809103902060090160009054906101000a900460ff16935093509350509750975097945050505050565b60008082600260008573ffffffffffffffffffffffffffffffffffffffff1673ffffffffffffffffffffffffffffffffffffffff16815260200190815260200160002060009054906101000a900460ff1691509150915091565b6000806000809054906101000a900473ffffffffffffffffffffffffffffffffffffffff1673ffffffffffffffffffffffffffffffffffffffff163373ffffffffffffffffffffffffffffffffffffffff1614151561144957600080fd5b6001600260008673ffffffffffffffffffffffffffffffffffffffff1673ffffffffffffffffffffffffffffffffffffffff16815260200190815260200160002060006101000a81548160ff02191690831515021790555082600360008673ffffffffffffffffffffffffffffffffffffffff1673ffffffffffffffffffffffffffffffffffffffff16815260200190815260200160002060000190805190602001906114f79291906127f1565b506001600360008673ffffffffffffffffffffffffffffffffffffffff1673ffffffffffffffffffffffffffffffffffffffff16815260200190815260200160002060020160006101000a81548160ff02191690831515021790555061155d848461232c565b5050507fc4168fc24d026da668cfc85f6a651dad0d5fb01abf66062ee0b11cf60530a9f68484604051808373ffffffffffffffffffffffffffffffffffffffff1673ffffffffffffffffffffffffffffffffffffffff16815260200180602001828103825283818151815260200191508051906020019080838360005b838110156115f55780820151818401526020810190506115da565b50505050905090810190601f1680156116225780820380516001836020036101000a031916815260200191505b50935050505060405180910390a183600260008673ffffffffffffffffffffffffffffffffffffffff1673ffffffffffffffffffffffffffffffffffffffff16815260200190815260200160002060009054906101000a900460ff16915091509250929050565b6000806000809054906101000a900473ffffffffffffffffffffffffffffffffffffffff1673ffffffffffffffffffffffffffffffffffffffff163373ffffffffffffffffffffffffffffffffffffffff161415156116e757600080fd5b6000600260008573ffffffffffffffffffffffffffffffffffffffff1673ffffffffffffffffffffffffffffffffffffffff16815260200190815260200160002060006101000a81548160ff0219169083151502179055507fa7c8fe5bc0df3d140e1fbc203a5e0d799f63207ed5b5766e691f89056a4bf95483604051808273ffffffffffffffffffffffffffffffffffffffff1673ffffffffffffffffffffffffffffffffffffffff16815260200191505060405180910390a182600260008573ffffffffffffffffffffffffffffffffffffffff1673ffffffffffffffffffffffffffffffffffffffff16815260200190815260200160002060009054906101000a900460ff1691509150915091565b60608060608060608060006001886040518082805190602001908083835b60208310151561183c5780518252602082019150602081019050602083039250611817565b6001836020036101000a03801982511681845116808217855250505050505090500191505090815260200160405180910390206000016001896040518082805190602001908083835b6020831015156118aa5780518252602082019150602081019050602083039250611885565b6001836020036101000a038019825116818451168082178552505050505050905001915050908152602001604051809103902060010160018a6040518082805190602001908083835b60208310151561191857805182526020820191506020810190506020830392506118f3565b6001836020036101000a038019825116818451168082178552505050505050905001915050908152602001604051809103902060020160018b6040518082805190602001908083835b6020831015156119865780518252602082019150602081019050602083039250611961565b6001836020036101000a038019825116818451168082178552505050505050905001915050908152602001604051809103902060030160018c6040518082805190602001908083835b6020831015156119f457805182526020820191506020810190506020830392506119cf565b6001836020036101000a038019825116818451168082178552505050505050905001915050908152602001604051809103902060040160018d6040518082805190602001908083835b602083101515611a625780518252602082019150602081019050602083039250611a3d565b6001836020036101000a038019825116818451168082178552505050505050905001915050908152602001604051809103902060050160018e6040518082805190602001908083835b602083101515611ad05780518252602082019150602081019050602083039250611aab565b6001836020036101000a038019825116818451168082178552505050505050905001915050908152602001604051809103902060060160009054906101000a900473ffffffffffffffffffffffffffffffffffffffff16868054600181600116156101000203166002900480601f016020809104026020016040519081016040528092919081815260200182805460018160011615610100020316600290048015611bbc5780601f10611b9157610100808354040283529160200191611bbc565b820191906000526020600020905b815481529060010190602001808311611b9f57829003601f168201915b50505050509650858054600181600116156101000203166002900480601f016020809104026020016040519081016040528092919081815260200182805460018160011615610100020316600290048015611c585780601f10611c2d57610100808354040283529160200191611c58565b820191906000526020600020905b815481529060010190602001808311611c3b57829003601f168201915b50505050509550848054600181600116156101000203166002900480601f016020809104026020016040519081016040528092919081815260200182805460018160011615610100020316600290048015611cf45780601f10611cc957610100808354040283529160200191611cf4565b820191906000526020600020905b815481529060010190602001808311611cd757829003601f168201915b50505050509450838054600181600116156101000203166002900480601f016020809104026020016040519081016040528092919081815260200182805460018160011615610100020316600290048015611d905780601f10611d6557610100808354040283529160200191611d90565b820191906000526020600020905b815481529060010190602001808311611d7357829003601f168201915b50505050509350828054600181600116156101000203166002900480601f016020809104026020016040519081016040528092919081815260200182805460018160011615610100020316600290048015611e2c5780601f10611e0157610100808354040283529160200191611e2c565b820191906000526020600020905b815481529060010190602001808311611e0f57829003601f168201915b50505050509250818054600181600116156101000203166002900480601f016020809104026020016040519081016040528092919081815260200182805460018160011615610100020316600290048015611ec85780601f10611e9d57610100808354040283529160200191611ec8565b820191906000526020600020905b815481529060010190602001808311611eab57829003601f168201915b505050505091509650965096509650965096509650919395979092949650565b6000809054906101000a900473ffffffffffffffffffffffffffffffffffffffff1681565b6000600480549050905090565b8060011515600360003373ffffffffffffffffffffffffffffffffffffffff1673ffffffffffffffffffffffffffffffffffffffff168152602001908152602001600020600101826040518082805190602001908083835b602083101515611f975780518252602082019150602081019050602083039250611f72565b6001836020036101000a038019825116818451168082178552505050505050905001915050908152602001604051809103902060009054906101000a900460ff161515141515611fe657600080fd5b8260011515600360008373ffffffffffffffffffffffffffffffffffffffff1673ffffffffffffffffffffffffffffffffffffffff16815260200190815260200160002060020160009054906101000a900460ff16151514151561204957600080fd5b6001836040518082805190602001908083835b602083101515612081578051825260208201915060208101905060208303925061205c565b6001836020036101000a03801982511681845116808217855250505050505090500191505090815260200160405180910390206007016001846040518082805190602001908083835b6020831015156120ef57805182526020820191506020810190506020830392506120ca565b6001836020036101000a038019825116818451168082178552505050505050905001915050908152602001604051809103902060060160009054906101000a900473ffffffffffffffffffffffffffffffffffffffff1690806001815401808255809150509060018203906000526020600020016000909192909190916101000a81548173ffffffffffffffffffffffffffffffffffffffff021916908373ffffffffffffffffffffffffffffffffffffffff16021790555050836001846040518082805190602001908083835b6020831015156121e257805182526020820191506020810190506020830392506121bd565b6001836020036101000a038019825116818451168082178552505050505050905001915050908152602001604051809103902060060160006101000a81548173ffffffffffffffffffffffffffffffffffffffff021916908373ffffffffffffffffffffffffffffffffffffffff1602179055507f54bf9864445e0d3b9c51c52a54244b8ff05dcada3037afdbbe3b45c3aad0d0a98484604051808373ffffffffffffffffffffffffffffffffffffffff1673ffffffffffffffffffffffffffffffffffffffff16815260200180602001828103825283818151815260200191508051906020019080838360005b838110156122eb5780820151818401526020810190506122d0565b50505050905090810190601f1680156123185780820380516001836020036101000a031916815260200191505b50935050505060405180910390a150505050565b6000606060008060009054906101000a900473ffffffffffffffffffffffffffffffffffffffff1673ffffffffffffffffffffffffffffffffffffffff163373ffffffffffffffffffffffffffffffffffffffff1614151561238d57600080fd5b8460001515600360008373ffffffffffffffffffffffffffffffffffffffff1673ffffffffffffffffffffffffffffffffffffffff16815260200190815260200160002060020160009054906101000a900460ff1615151415156123f057600080fd5b84600360008873ffffffffffffffffffffffffffffffffffffffff1673ffffffffffffffffffffffffffffffffffffffff16815260200190815260200160002060000190805190602001906124469291906127f1565b506001600360008873ffffffffffffffffffffffffffffffffffffffff1673ffffffffffffffffffffffffffffffffffffffff16815260200190815260200160002060020160006101000a81548160ff0219169083151502179055507f3f89ca8cf1638048276f9342a6f767e3fe64b000b403b933c5075fc982e463368686604051808373ffffffffffffffffffffffffffffffffffffffff1673ffffffffffffffffffffffffffffffffffffffff16815260200180602001828103825283818151815260200191508051906020019080838360005b8381101561253757808201518184015260208101905061251c565b50505050905090810190601f1680156125645780820380516001836020036101000a031916815260200191505b50935050505060405180910390a185600360008873ffffffffffffffffffffffffffffffffffffffff1673ffffffffffffffffffffffffffffffffffffffff168152602001908152602001600020600001600360008973ffffffffffffffffffffffffffffffffffffffff1673ffffffffffffffffffffffffffffffffffffffff16815260200190815260200160002060020160009054906101000a900460ff16818054600181600116156101000203166002900480601f01602080910402602001604051908101604052809291908181526020018280546001816001161561010002031660029004801561269a5780601f1061266f5761010080835404028352916020019161269a565b820191906000526020600020905b81548152906001019060200180831161267d57829003601f168201915b50505050509150935093509350509250925092565b60006060600083600360008673ffffffffffffffffffffffffffffffffffffffff1673ffffffffffffffffffffffffffffffffffffffff168152602001908152602001600020600001600360008773ffffffffffffffffffffffffffffffffffffffff1673ffffffffffffffffffffffffffffffffffffffff16815260200190815260200160002060020160009054906101000a900460ff16818054600181600116156101000203166002900480601f0160208091040260200160405190810160405280929190818152602001828054600181600116156101000203166002900480156127dd5780601f106127b2576101008083540402835291602001916127dd565b820191906000526020600020905b8154815290600101906020018083116127c057829003601f168201915b505050505091509250925092509193909250565b828054600181600116156101000203166002900490600052602060002090601f016020900481019282601f1061283257805160ff1916838001178555612860565b82800160010185558215612860579182015b8281111561285f578251825591602001919060010190612844565b5b50905061286d9190612871565b5090565b61289391905b8082111561288f576000816000905550600101612877565b5090565b905600a165627a7a7230582013c93c261cc60474c794c29d7271a6e80f80bacaadda70d2b47f3ae6066bfffe0029",
  "source": "pragma solidity ^0.4.21;\n\ncontract WineHouse {\n    address public owner;\n    mapping (string => WineData) private wines;\n    mapping (address => bool) private trustedPartners;\n    mapping (address => OwnerInfo) private wineOwners;\n    string[] private wineIndices;\n    \n    constructor() public {\n        owner = msg.sender;\n    }\n    \n    struct OwnerInfo {\n        string name;\n        mapping (string => bool) wines;\n        bool isActive;\n    }\n    \n    struct WineData {\n        string cork;\n        string capsule;\n        string glass;\n        string frontLabel;\n        string backLabel;\n        string bottle;\n        address currentOwner;\n        address[] ownerHistory;\n        uint index;\n        bool isActive;\n    }\n    \n    modifier onlyMaster() {\n        require(msg.sender == owner);\n        _;\n    }\n    \n    modifier onlyTrustedPartner() {\n        require(trustedPartners[msg.sender] == true);\n        _;\n    }\n    \n    modifier onlyAssetOwner(string _uniqueIdentifier) {\n        require(wineOwners[msg.sender].wines[_uniqueIdentifier] == true);\n        _;\n    }\n\n    modifier wineShouldNotExist(string _uniqueIdentifier) {\n        require(wines[_uniqueIdentifier].isActive == false);\n        _;\n    }\n\n    modifier shouldBeUnique(address _ownerAddress) {\n        require(wineOwners[_ownerAddress].isActive == false);\n        _;\n    }\n\n    modifier recipientShouldExist(address _recipient) {\n        require(wineOwners[_recipient].isActive == true);\n        _;\n    }\n    \n    function getWineCount() view public returns (uint count) {\n        return wineIndices.length;\n    }\n\n    event NewWineOwner(address _ownerAddress, string _name);\n    event NewTrustedPartner(address _partnerAddress, string _name);\n    event RemovedTrustedPartner(address _partnerAddress);\n    event NewWine(string _uniqueIdentifier);\n    event WineTransfer(address _to, string _uniqueIdentifier);\n    \n    // ===============================================================\n    \n    function registerWineOwner(\n        address _ownerAddress, \n        string _name\n        ) public onlyMaster shouldBeUnique(_ownerAddress) \n        returns (\n            address, string, bool\n        ) {\n        \n        wineOwners[_ownerAddress].name = _name;\n        wineOwners[_ownerAddress].isActive = true;\n\n        emit NewWineOwner(_ownerAddress, _name);\n\n        return (\n            _ownerAddress, \n            wineOwners[_ownerAddress].name, \n            wineOwners[_ownerAddress].isActive\n        );\n\n    }\n\n    function getWineOwner(address _ownerAddress) view public returns (address, string, bool) {\n        return (\n            _ownerAddress,\n            wineOwners[_ownerAddress].name,\n            wineOwners[_ownerAddress].isActive\n        );\n    }\n    \n    function addTrustedPartner(address _partnerAddress, string _name) public onlyMaster returns (address, bool) {\n        trustedPartners[_partnerAddress] = true;\n        wineOwners[_partnerAddress].name = _name;\n        wineOwners[_partnerAddress].isActive = true;\n        registerWineOwner(_partnerAddress, _name);\n        \n        emit NewTrustedPartner(_partnerAddress, _name);\n\n        return (_partnerAddress, trustedPartners[_partnerAddress]);\n    }\n\n    function getTrustedPartner(address _partner) view public returns (address, bool) {\n        return (_partner, trustedPartners[_partner]);\n    }\n    \n    function removeTrustedPartner(address _partner) public onlyMaster returns (address ,bool) {\n        trustedPartners[_partner] = false;\n\n        emit RemovedTrustedPartner(_partner);\n\n        return (_partner, trustedPartners[_partner]);\n    }\n    \n    function createWine(\n        string _cork,\n        string _capsule,\n        string _glass,\n        string _frontLabel,\n        string _backLabel,\n        string _bottle,\n        string _uniqueIdentifier\n    ) public onlyTrustedPartner wineShouldNotExist(_uniqueIdentifier)\n        returns (\n            uint index, \n            string uniqueIdentifier, \n            bool isActive\n        ) {\n        wines[_uniqueIdentifier].cork = _cork;\n        wines[_uniqueIdentifier].capsule = _capsule;\n        wines[_uniqueIdentifier].glass = _glass;\n        wines[_uniqueIdentifier].frontLabel = _frontLabel;\n        wines[_uniqueIdentifier].backLabel = _backLabel;\n        wines[_uniqueIdentifier].bottle = _bottle;\n        \n        wines[_uniqueIdentifier].currentOwner = msg.sender;\n        \n        wines[_uniqueIdentifier].isActive = true;\n        wines[_uniqueIdentifier].index = wineIndices.length;\n        wineIndices.push(_uniqueIdentifier);\n        wineOwners[msg.sender].wines[_uniqueIdentifier] = true;\n\n        emit NewWine(_uniqueIdentifier);\n        \n        return (wineIndices.length - 1, _uniqueIdentifier, wines[_uniqueIdentifier].isActive);\n    }\n    \n    function transferWine(address _to, string _uniqueIdentifier) public onlyAssetOwner(_uniqueIdentifier) recipientShouldExist(_to) {\n\n        wines[_uniqueIdentifier].ownerHistory.push(wines[_uniqueIdentifier].currentOwner);\n        wines[_uniqueIdentifier].currentOwner = _to;\n\n        emit WineTransfer(_to, _uniqueIdentifier);\n    }\n    \n    function retrieve(string _uniqueIdentifier) view public \n        returns (\n            string cork,\n            string capsule,\n            string glass,\n            string frontLabel,\n            string backLabel,\n            string bottle,\n            address currentOwner\n        ) {\n        return (\n            wines[_uniqueIdentifier].cork,\n            wines[_uniqueIdentifier].capsule,\n            wines[_uniqueIdentifier].glass,\n            wines[_uniqueIdentifier].frontLabel,\n            wines[_uniqueIdentifier].backLabel,\n            wines[_uniqueIdentifier].bottle,\n            wines[_uniqueIdentifier].currentOwner\n        );   \n    }\n}",
  "sourcePath": "/home/android-m8d8y15/WINE-HOUSE/solidity/contracts/WineHouse.sol",
  "compiler": {
    "name": "solc",
    "version": "0.4.23+commit.124ca40d.Emscripten.clang"
  },
  "schemaVersion": "2.0.0",
  "updatedAt": "2018-06-05T05:36:07.151Z"
}