{
  "contractName": "WineHouse",
  "abi": [
    {
      "constant": true,
      "inputs": [],
      "name": "owner",
      "outputs": [
        {
          "name": "",
          "type": "address"
        }
      ],
      "payable": false,
      "stateMutability": "view",
      "type": "function"
    },
    {
      "inputs": [],
      "payable": false,
      "stateMutability": "nonpayable",
      "type": "constructor"
    },
    {
      "anonymous": false,
      "inputs": [
        {
          "indexed": false,
          "name": "_ownerAddress",
          "type": "address"
        },
        {
          "indexed": false,
          "name": "_name",
          "type": "string"
        }
      ],
      "name": "NewWineOwner",
      "type": "event"
    },
    {
      "anonymous": false,
      "inputs": [
        {
          "indexed": false,
          "name": "_partnerAddress",
          "type": "address"
        },
        {
          "indexed": false,
          "name": "_name",
          "type": "string"
        }
      ],
      "name": "NewTrustedPartner",
      "type": "event"
    },
    {
      "anonymous": false,
      "inputs": [
        {
          "indexed": false,
          "name": "_partnerAddress",
          "type": "address"
        }
      ],
      "name": "RemovedTrustedPartner",
      "type": "event"
    },
    {
      "anonymous": false,
      "inputs": [
        {
          "indexed": false,
          "name": "_uniqueIdentifier",
          "type": "string"
        }
      ],
      "name": "NewWine",
      "type": "event"
    },
    {
      "anonymous": false,
      "inputs": [
        {
          "indexed": false,
          "name": "_to",
          "type": "address"
        },
        {
          "indexed": false,
          "name": "_uniqueIdentifier",
          "type": "string"
        }
      ],
      "name": "WineTransfer",
      "type": "event"
    },
    {
      "constant": true,
      "inputs": [],
      "name": "getWineCount",
      "outputs": [
        {
          "name": "count",
          "type": "uint256"
        }
      ],
      "payable": false,
      "stateMutability": "view",
      "type": "function"
    },
    {
      "constant": true,
      "inputs": [
        {
          "name": "_wineOwner",
          "type": "address"
        }
      ],
      "name": "getOwnedWineCountOf",
      "outputs": [
        {
          "name": "",
          "type": "uint256"
        }
      ],
      "payable": false,
      "stateMutability": "view",
      "type": "function"
    },
    {
      "constant": true,
      "inputs": [
        {
          "name": "_wineOwner",
          "type": "address"
        },
        {
          "name": "_index",
          "type": "uint256"
        }
      ],
      "name": "getWineIdentifierAt",
      "outputs": [
        {
          "name": "",
          "type": "string"
        }
      ],
      "payable": false,
      "stateMutability": "view",
      "type": "function"
    },
    {
      "constant": true,
      "inputs": [
        {
          "name": "_uniqueIdentifier",
          "type": "string"
        },
        {
          "name": "_index",
          "type": "uint256"
        }
      ],
      "name": "getOwnerHistoryAt",
      "outputs": [
        {
          "name": "",
          "type": "address"
        }
      ],
      "payable": false,
      "stateMutability": "view",
      "type": "function"
    },
    {
      "constant": false,
      "inputs": [
        {
          "name": "_ownerAddress",
          "type": "address"
        },
        {
          "name": "_name",
          "type": "string"
        }
      ],
      "name": "registerWineOwner",
      "outputs": [
        {
          "name": "",
          "type": "address"
        },
        {
          "name": "",
          "type": "string"
        },
        {
          "name": "",
          "type": "bool"
        }
      ],
      "payable": false,
      "stateMutability": "nonpayable",
      "type": "function"
    },
    {
      "constant": true,
      "inputs": [
        {
          "name": "_ownerAddress",
          "type": "address"
        }
      ],
      "name": "getWineOwner",
      "outputs": [
        {
          "name": "",
          "type": "address"
        },
        {
          "name": "",
          "type": "string"
        },
        {
          "name": "",
          "type": "bool"
        }
      ],
      "payable": false,
      "stateMutability": "view",
      "type": "function"
    },
    {
      "constant": false,
      "inputs": [
        {
          "name": "_partnerAddress",
          "type": "address"
        },
        {
          "name": "_name",
          "type": "string"
        }
      ],
      "name": "addTrustedPartner",
      "outputs": [
        {
          "name": "",
          "type": "address"
        },
        {
          "name": "",
          "type": "bool"
        }
      ],
      "payable": false,
      "stateMutability": "nonpayable",
      "type": "function"
    },
    {
      "constant": true,
      "inputs": [
        {
          "name": "_partner",
          "type": "address"
        }
      ],
      "name": "getTrustedPartner",
      "outputs": [
        {
          "name": "",
          "type": "address"
        },
        {
          "name": "",
          "type": "bool"
        }
      ],
      "payable": false,
      "stateMutability": "view",
      "type": "function"
    },
    {
      "constant": false,
      "inputs": [
        {
          "name": "_partner",
          "type": "address"
        }
      ],
      "name": "removeTrustedPartner",
      "outputs": [
        {
          "name": "",
          "type": "address"
        },
        {
          "name": "",
          "type": "bool"
        }
      ],
      "payable": false,
      "stateMutability": "nonpayable",
      "type": "function"
    },
    {
      "constant": false,
      "inputs": [
        {
          "name": "_cork",
          "type": "string"
        },
        {
          "name": "_capsule",
          "type": "string"
        },
        {
          "name": "_glass",
          "type": "string"
        },
        {
          "name": "_frontLabel",
          "type": "string"
        },
        {
          "name": "_backLabel",
          "type": "string"
        },
        {
          "name": "_bottle",
          "type": "string"
        },
        {
          "name": "_uniqueIdentifier",
          "type": "string"
        }
      ],
      "name": "createWine",
      "outputs": [
        {
          "name": "index",
          "type": "uint256"
        },
        {
          "name": "uniqueIdentifier",
          "type": "string"
        },
        {
          "name": "isActive",
          "type": "bool"
        }
      ],
      "payable": false,
      "stateMutability": "nonpayable",
      "type": "function"
    },
    {
      "constant": false,
      "inputs": [
        {
          "name": "_to",
          "type": "address"
        },
        {
          "name": "_uniqueIdentifier",
          "type": "string"
        }
      ],
      "name": "transferWine",
      "outputs": [],
      "payable": false,
      "stateMutability": "nonpayable",
      "type": "function"
    },
    {
      "constant": true,
      "inputs": [
        {
          "name": "_uniqueIdentifier",
          "type": "string"
        }
      ],
      "name": "retrieveWineData",
      "outputs": [
        {
          "name": "cork",
          "type": "string"
        },
        {
          "name": "capsule",
          "type": "string"
        },
        {
          "name": "glass",
          "type": "string"
        },
        {
          "name": "frontLabel",
          "type": "string"
        },
        {
          "name": "backLabel",
          "type": "string"
        },
        {
          "name": "bottle",
          "type": "string"
        },
        {
          "name": "currentOwner",
          "type": "address"
        }
      ],
      "payable": false,
      "stateMutability": "view",
      "type": "function"
    }
  ],
  "bytecode": "0x608060405234801561001057600080fd5b50336000806101000a81548173ffffffffffffffffffffffffffffffffffffffff021916908373ffffffffffffffffffffffffffffffffffffffff160217905550613111806100606000396000f3006080604052600436106100c5576000357c0100000000000000000000000000000000000000000000000000000000900463ffffffff16806305a8c397146100ca5780631a1f383a146103fb5780633813a7f21461069357806341cbd6ea1461075957806346984489146107e75780635a2b21a81461089a5780635cae77671461096e5780638da5cb5b146109fc5780639c4fc41a14610a53578063a862077b14610a7e578063ca6aea7314610b07578063cde25f8a14610c47578063eee1f5f914610d41575b600080fd5b3480156100d657600080fd5b50610131600480360381019080803590602001908201803590602001908080601f0160208091040260200160405190810160405280939291908181526020018383808284378201915050505050509192919290505050610d98565b604051808060200180602001806020018060200180602001806020018873ffffffffffffffffffffffffffffffffffffffff1673ffffffffffffffffffffffffffffffffffffffff16815260200187810387528e818151815260200191508051906020019080838360005b838110156101b757808201518184015260208101905061019c565b50505050905090810190601f1680156101e45780820380516001836020036101000a031916815260200191505b5087810386528d818151815260200191508051906020019080838360005b8381101561021d578082015181840152602081019050610202565b50505050905090810190601f16801561024a5780820380516001836020036101000a031916815260200191505b5087810385528c818151815260200191508051906020019080838360005b83811015610283578082015181840152602081019050610268565b50505050905090810190601f1680156102b05780820380516001836020036101000a031916815260200191505b5087810384528b818151815260200191508051906020019080838360005b838110156102e95780820151818401526020810190506102ce565b50505050905090810190601f1680156103165780820380516001836020036101000a031916815260200191505b5087810383528a818151815260200191508051906020019080838360005b8381101561034f578082015181840152602081019050610334565b50505050905090810190601f16801561037c5780820380516001836020036101000a031916815260200191505b50878103825289818151815260200191508051906020019080838360005b838110156103b557808201518184015260208101905061039a565b50505050905090810190601f1680156103e25780820380516001836020036101000a031916815260200191505b509d505050505050505050505050505060405180910390f35b34801561040757600080fd5b50610606600480360381019080803590602001908201803590602001908080601f0160208091040260200160405190810160405280939291908181526020018383808284378201915050505050509192919290803590602001908201803590602001908080601f0160208091040260200160405190810160405280939291908181526020018383808284378201915050505050509192919290803590602001908201803590602001908080601f0160208091040260200160405190810160405280939291908181526020018383808284378201915050505050509192919290803590602001908201803590602001908080601f0160208091040260200160405190810160405280939291908181526020018383808284378201915050505050509192919290803590602001908201803590602001908080601f0160208091040260200160405190810160405280939291908181526020018383808284378201915050505050509192919290803590602001908201803590602001908080601f0160208091040260200160405190810160405280939291908181526020018383808284378201915050505050509192919290803590602001908201803590602001908080601f0160208091040260200160405190810160405280939291908181526020018383808284378201915050505050509192919290505050611487565b604051808481526020018060200183151515158152602001828103825284818151815260200191508051906020019080838360005b8381101561065657808201518184015260208101905061063b565b50505050905090810190601f1680156106835780820380516001836020036101000a031916815260200191505b5094505050505060405180910390f35b34801561069f57600080fd5b506106de600480360381019080803573ffffffffffffffffffffffffffffffffffffffff16906020019092919080359060200190929190505050611cf0565b6040518080602001828103825283818151815260200191508051906020019080838360005b8381101561071e578082015181840152602081019050610703565b50505050905090810190601f16801561074b5780820380516001836020036101000a031916815260200191505b509250505060405180910390f35b34801561076557600080fd5b5061079a600480360381019080803573ffffffffffffffffffffffffffffffffffffffff169060200190929190505050611dec565b604051808373ffffffffffffffffffffffffffffffffffffffff1673ffffffffffffffffffffffffffffffffffffffff168152602001821515151581526020019250505060405180910390f35b3480156107f357600080fd5b50610858600480360381019080803590602001908201803590602001908080601f016020809104026020016040519081016040528093929190818152602001838380828437820191505050505050919291929080359060200190929190505050611e46565b604051808273ffffffffffffffffffffffffffffffffffffffff1673ffffffffffffffffffffffffffffffffffffffff16815260200191505060405180910390f35b3480156108a657600080fd5b50610921600480360381019080803573ffffffffffffffffffffffffffffffffffffffff169060200190929190803590602001908201803590602001908080601f0160208091040260200160405190810160405280939291908181526020018383808284378201915050505050509192919290505050611ef6565b604051808373ffffffffffffffffffffffffffffffffffffffff1673ffffffffffffffffffffffffffffffffffffffff168152602001821515151581526020019250505060405180910390f35b34801561097a57600080fd5b506109af600480360381019080803573ffffffffffffffffffffffffffffffffffffffff169060200190929190505050612194565b604051808373ffffffffffffffffffffffffffffffffffffffff1673ffffffffffffffffffffffffffffffffffffffff168152602001821515151581526020019250505060405180910390f35b348015610a0857600080fd5b50610a11612304565b604051808273ffffffffffffffffffffffffffffffffffffffff1673ffffffffffffffffffffffffffffffffffffffff16815260200191505060405180910390f35b348015610a5f57600080fd5b50610a68612329565b6040518082815260200191505060405180910390f35b348015610a8a57600080fd5b50610b05600480360381019080803573ffffffffffffffffffffffffffffffffffffffff169060200190929190803590602001908201803590602001908080601f0160208091040260200160405190810160405280939291908181526020018383808284378201915050505050509192919290505050612336565b005b348015610b1357600080fd5b50610b8e600480360381019080803573ffffffffffffffffffffffffffffffffffffffff169060200190929190803590602001908201803590602001908080601f0160208091040260200160405190810160405280939291908181526020018383808284378201915050505050509192919290505050612a69565b604051808473ffffffffffffffffffffffffffffffffffffffff1673ffffffffffffffffffffffffffffffffffffffff1681526020018060200183151515158152602001828103825284818151815260200191508051906020019080838360005b83811015610c0a578082015181840152602081019050610bef565b50505050905090810190601f168015610c375780820380516001836020036101000a031916815260200191505b5094505050505060405180910390f35b348015610c5357600080fd5b50610c88600480360381019080803573ffffffffffffffffffffffffffffffffffffffff169060200190929190505050612d88565b604051808473ffffffffffffffffffffffffffffffffffffffff1673ffffffffffffffffffffffffffffffffffffffff1681526020018060200183151515158152602001828103825284818151815260200191508051906020019080838360005b83811015610d04578082015181840152602081019050610ce9565b50505050905090810190601f168015610d315780820380516001836020036101000a031916815260200191505b5094505050505060405180910390f35b348015610d4d57600080fd5b50610d82600480360381019080803573ffffffffffffffffffffffffffffffffffffffff169060200190929190505050612eca565b6040518082815260200191505060405180910390f35b60608060608060608060006001886040518082805190602001908083835b602083101515610ddb5780518252602082019150602081019050602083039250610db6565b6001836020036101000a03801982511681845116808217855250505050505090500191505090815260200160405180910390206000016001896040518082805190602001908083835b602083101515610e495780518252602082019150602081019050602083039250610e24565b6001836020036101000a038019825116818451168082178552505050505050905001915050908152602001604051809103902060010160018a6040518082805190602001908083835b602083101515610eb75780518252602082019150602081019050602083039250610e92565b6001836020036101000a038019825116818451168082178552505050505050905001915050908152602001604051809103902060020160018b6040518082805190602001908083835b602083101515610f255780518252602082019150602081019050602083039250610f00565b6001836020036101000a038019825116818451168082178552505050505050905001915050908152602001604051809103902060030160018c6040518082805190602001908083835b602083101515610f935780518252602082019150602081019050602083039250610f6e565b6001836020036101000a038019825116818451168082178552505050505050905001915050908152602001604051809103902060040160018d6040518082805190602001908083835b6020831015156110015780518252602082019150602081019050602083039250610fdc565b6001836020036101000a038019825116818451168082178552505050505050905001915050908152602001604051809103902060050160018e6040518082805190602001908083835b60208310151561106f578051825260208201915060208101905060208303925061104a565b6001836020036101000a038019825116818451168082178552505050505050905001915050908152602001604051809103902060060160009054906101000a900473ffffffffffffffffffffffffffffffffffffffff16868054600181600116156101000203166002900480601f01602080910402602001604051908101604052809291908181526020018280546001816001161561010002031660029004801561115b5780601f106111305761010080835404028352916020019161115b565b820191906000526020600020905b81548152906001019060200180831161113e57829003601f168201915b50505050509650858054600181600116156101000203166002900480601f0160208091040260200160405190810160405280929190818152602001828054600181600116156101000203166002900480156111f75780601f106111cc576101008083540402835291602001916111f7565b820191906000526020600020905b8154815290600101906020018083116111da57829003601f168201915b50505050509550848054600181600116156101000203166002900480601f0160208091040260200160405190810160405280929190818152602001828054600181600116156101000203166002900480156112935780601f1061126857610100808354040283529160200191611293565b820191906000526020600020905b81548152906001019060200180831161127657829003601f168201915b50505050509450838054600181600116156101000203166002900480601f01602080910402602001604051908101604052809291908181526020018280546001816001161561010002031660029004801561132f5780601f106113045761010080835404028352916020019161132f565b820191906000526020600020905b81548152906001019060200180831161131257829003601f168201915b50505050509350828054600181600116156101000203166002900480601f0160208091040260200160405190810160405280929190818152602001828054600181600116156101000203166002900480156113cb5780601f106113a0576101008083540402835291602001916113cb565b820191906000526020600020905b8154815290600101906020018083116113ae57829003601f168201915b50505050509250818054600181600116156101000203166002900480601f0160208091040260200160405190810160405280929190818152602001828054600181600116156101000203166002900480156114675780601f1061143c57610100808354040283529160200191611467565b820191906000526020600020905b81548152906001019060200180831161144a57829003601f168201915b505050505091509650965096509650965096509650919395979092949650565b60006060600060011515600260003373ffffffffffffffffffffffffffffffffffffffff1673ffffffffffffffffffffffffffffffffffffffff16815260200190815260200160002060009054906101000a900460ff1615151415156114ec57600080fd5b83600015156001826040518082805190602001908083835b6020831015156115295780518252602082019150602081019050602083039250611504565b6001836020036101000a038019825116818451168082178552505050505050905001915050908152602001604051809103902060090160009054906101000a900460ff16151514151561157b57600080fd5b8a6001866040518082805190602001908083835b6020831015156115b4578051825260208201915060208101905060208303925061158f565b6001836020036101000a038019825116818451168082178552505050505050905001915050908152602001604051809103902060000190805190602001906115fd929190612f19565b50896001866040518082805190602001908083835b6020831015156116375780518252602082019150602081019050602083039250611612565b6001836020036101000a03801982511681845116808217855250505050505090500191505090815260200160405180910390206001019080519060200190611680929190612f19565b50886001866040518082805190602001908083835b6020831015156116ba5780518252602082019150602081019050602083039250611695565b6001836020036101000a03801982511681845116808217855250505050505090500191505090815260200160405180910390206002019080519060200190611703929190612f19565b50876001866040518082805190602001908083835b60208310151561173d5780518252602082019150602081019050602083039250611718565b6001836020036101000a03801982511681845116808217855250505050505090500191505090815260200160405180910390206003019080519060200190611786929190612f19565b50866001866040518082805190602001908083835b6020831015156117c0578051825260208201915060208101905060208303925061179b565b6001836020036101000a03801982511681845116808217855250505050505090500191505090815260200160405180910390206004019080519060200190611809929190612f19565b50856001866040518082805190602001908083835b602083101515611843578051825260208201915060208101905060208303925061181e565b6001836020036101000a0380198251168184511680821785525050505050509050019150509081526020016040518091039020600501908051906020019061188c929190612f19565b50336001866040518082805190602001908083835b6020831015156118c657805182526020820191506020810190506020830392506118a1565b6001836020036101000a038019825116818451168082178552505050505050905001915050908152602001604051809103902060060160006101000a81548173ffffffffffffffffffffffffffffffffffffffff021916908373ffffffffffffffffffffffffffffffffffffffff160217905550600180866040518082805190602001908083835b602083101515611973578051825260208201915060208101905060208303925061194e565b6001836020036101000a038019825116818451168082178552505050505050905001915050908152602001604051809103902060090160006101000a81548160ff0219169083151502179055506004805490506001866040518082805190602001908083835b6020831015156119fe57805182526020820191506020810190506020830392506119d9565b6001836020036101000a0380198251168184511680821785525050505050509050019150509081526020016040518091039020600801819055506004859080600181540180825580915050906001820390600052602060002001600090919290919091509080519060200190611a75929190612f19565b50506001600360003373ffffffffffffffffffffffffffffffffffffffff1673ffffffffffffffffffffffffffffffffffffffff168152602001908152602001600020600101866040518082805190602001908083835b602083101515611af15780518252602082019150602081019050602083039250611acc565b6001836020036101000a038019825116818451168082178552505050505050905001915050908152602001604051809103902060006101000a81548160ff021916908315150217905550600360003373ffffffffffffffffffffffffffffffffffffffff1673ffffffffffffffffffffffffffffffffffffffff168152602001908152602001600020600201859080600181540180825580915050906001820390600052602060002001600090919290919091509080519060200190611bb8929190612f19565b50507fc5c4e60c1bbf517a7aef27d8345fe6ba523d9b4192b478d853a41a865a2647fb856040518080602001828103825283818151815260200191508051906020019080838360005b83811015611c1c578082015181840152602081019050611c01565b50505050905090810190601f168015611c495780820380516001836020036101000a031916815260200191505b509250505060405180910390a1600160048054905003856001876040518082805190602001908083835b602083101515611c985780518252602082019150602081019050602083039250611c73565b6001836020036101000a038019825116818451168082178552505050505050905001915050908152602001604051809103902060090160009054906101000a900460ff16935093509350509750975097945050505050565b6060600360008473ffffffffffffffffffffffffffffffffffffffff1673ffffffffffffffffffffffffffffffffffffffff16815260200190815260200160002060020182815481101515611d4157fe5b906000526020600020018054600181600116156101000203166002900480601f016020809104026020016040519081016040528092919081815260200182805460018160011615610100020316600290048015611ddf5780601f10611db457610100808354040283529160200191611ddf565b820191906000526020600020905b815481529060010190602001808311611dc257829003601f168201915b5050505050905092915050565b60008082600260008573ffffffffffffffffffffffffffffffffffffffff1673ffffffffffffffffffffffffffffffffffffffff16815260200190815260200160002060009054906101000a900460ff1691509150915091565b60006001836040518082805190602001908083835b602083101515611e805780518252602082019150602081019050602083039250611e5b565b6001836020036101000a038019825116818451168082178552505050505050905001915050908152602001604051809103902060070182815481101515611ec357fe5b9060005260206000200160009054906101000a900473ffffffffffffffffffffffffffffffffffffffff16905092915050565b6000806000809054906101000a900473ffffffffffffffffffffffffffffffffffffffff1673ffffffffffffffffffffffffffffffffffffffff163373ffffffffffffffffffffffffffffffffffffffff16141515611f5457600080fd5b6001600260008673ffffffffffffffffffffffffffffffffffffffff1673ffffffffffffffffffffffffffffffffffffffff16815260200190815260200160002060006101000a81548160ff02191690831515021790555082600360008673ffffffffffffffffffffffffffffffffffffffff1673ffffffffffffffffffffffffffffffffffffffff1681526020019081526020016000206000019080519060200190612002929190612f19565b506001600360008673ffffffffffffffffffffffffffffffffffffffff1673ffffffffffffffffffffffffffffffffffffffff16815260200190815260200160002060030160006101000a81548160ff0219169083151502179055506120688484612a69565b5050507fc4168fc24d026da668cfc85f6a651dad0d5fb01abf66062ee0b11cf60530a9f68484604051808373ffffffffffffffffffffffffffffffffffffffff1673ffffffffffffffffffffffffffffffffffffffff16815260200180602001828103825283818151815260200191508051906020019080838360005b838110156121005780820151818401526020810190506120e5565b50505050905090810190601f16801561212d5780820380516001836020036101000a031916815260200191505b50935050505060405180910390a183600260008673ffffffffffffffffffffffffffffffffffffffff1673ffffffffffffffffffffffffffffffffffffffff16815260200190815260200160002060009054906101000a900460ff16915091509250929050565b6000806000809054906101000a900473ffffffffffffffffffffffffffffffffffffffff1673ffffffffffffffffffffffffffffffffffffffff163373ffffffffffffffffffffffffffffffffffffffff161415156121f257600080fd5b6000600260008573ffffffffffffffffffffffffffffffffffffffff1673ffffffffffffffffffffffffffffffffffffffff16815260200190815260200160002060006101000a81548160ff0219169083151502179055507fa7c8fe5bc0df3d140e1fbc203a5e0d799f63207ed5b5766e691f89056a4bf95483604051808273ffffffffffffffffffffffffffffffffffffffff1673ffffffffffffffffffffffffffffffffffffffff16815260200191505060405180910390a182600260008573ffffffffffffffffffffffffffffffffffffffff1673ffffffffffffffffffffffffffffffffffffffff16815260200190815260200160002060009054906101000a900460ff1691509150915091565b6000809054906101000a900473ffffffffffffffffffffffffffffffffffffffff1681565b6000600480549050905090565b60008060008360011515600360003373ffffffffffffffffffffffffffffffffffffffff1673ffffffffffffffffffffffffffffffffffffffff168152602001908152602001600020600101826040518082805190602001908083835b6020831015156123b85780518252602082019150602081019050602083039250612393565b6001836020036101000a038019825116818451168082178552505050505050905001915050908152602001604051809103902060009054906101000a900460ff16151514151561240757600080fd5b8560011515600360008373ffffffffffffffffffffffffffffffffffffffff1673ffffffffffffffffffffffffffffffffffffffff16815260200190815260200160002060030160009054906101000a900460ff16151514151561246a57600080fd5b6001866040518082805190602001908083835b6020831015156124a2578051825260208201915060208101905060208303925061247d565b6001836020036101000a03801982511681845116808217855250505050505090500191505090815260200160405180910390206007016001876040518082805190602001908083835b60208310151561251057805182526020820191506020810190506020830392506124eb565b6001836020036101000a038019825116818451168082178552505050505050905001915050908152602001604051809103902060060160009054906101000a900473ffffffffffffffffffffffffffffffffffffffff1690806001815401808255809150509060018203906000526020600020016000909192909190916101000a81548173ffffffffffffffffffffffffffffffffffffffff021916908373ffffffffffffffffffffffffffffffffffffffff16021790555050866001876040518082805190602001908083835b60208310151561260357805182526020820191506020810190506020830392506125de565b6001836020036101000a038019825116818451168082178552505050505050905001915050908152602001604051809103902060060160006101000a81548173ffffffffffffffffffffffffffffffffffffffff021916908373ffffffffffffffffffffffffffffffffffffffff16021790555061268033612eca565b945060009350600093505b84841115156127e7578484141515156126a357600080fd5b856040518082805190602001908083835b6020831015156126d957805182526020820191506020810190506020830392506126b4565b6001836020036101000a038019825116818451168082178552505050505050905001915050604051809103902060001916600360003373ffffffffffffffffffffffffffffffffffffffff1673ffffffffffffffffffffffffffffffffffffffff1681526020019081526020016000206002018581548110151561275957fe5b9060005260206000200160405180828054600181600116156101000203166002900480156127be5780601f1061279c5761010080835404028352918201916127be565b820191906000526020600020905b8154815290600101906020018083116127aa575b505091505060405180910390206000191614156127da576127e7565b838060010194505061268b565b600360003373ffffffffffffffffffffffffffffffffffffffff1673ffffffffffffffffffffffffffffffffffffffff1681526020019081526020016000206002016001860381548110151561283957fe5b90600052602060002001925082600360003373ffffffffffffffffffffffffffffffffffffffff1673ffffffffffffffffffffffffffffffffffffffff1681526020019081526020016000206002018581548110151561289557fe5b9060005260206000200190805460018160011615610100020316600290046128be929190612f99565b5060018503600360003373ffffffffffffffffffffffffffffffffffffffff1673ffffffffffffffffffffffffffffffffffffffff168152602001908152602001600020600201816129109190613020565b50600360008873ffffffffffffffffffffffffffffffffffffffff1673ffffffffffffffffffffffffffffffffffffffff16815260200190815260200160002060020186908060018154018082558091505090600182039060005260206000200160009091929091909150908051906020019061298e929190612f19565b50507f54bf9864445e0d3b9c51c52a54244b8ff05dcada3037afdbbe3b45c3aad0d0a98787604051808373ffffffffffffffffffffffffffffffffffffffff1673ffffffffffffffffffffffffffffffffffffffff16815260200180602001828103825283818151815260200191508051906020019080838360005b83811015612a25578082015181840152602081019050612a0a565b50505050905090810190601f168015612a525780820380516001836020036101000a031916815260200191505b50935050505060405180910390a150505050505050565b6000606060008060009054906101000a900473ffffffffffffffffffffffffffffffffffffffff1673ffffffffffffffffffffffffffffffffffffffff163373ffffffffffffffffffffffffffffffffffffffff16141515612aca57600080fd5b83600360008773ffffffffffffffffffffffffffffffffffffffff1673ffffffffffffffffffffffffffffffffffffffff1681526020019081526020016000206000019080519060200190612b20929190612f19565b506001600360008773ffffffffffffffffffffffffffffffffffffffff1673ffffffffffffffffffffffffffffffffffffffff16815260200190815260200160002060030160006101000a81548160ff0219169083151502179055507f3f89ca8cf1638048276f9342a6f767e3fe64b000b403b933c5075fc982e463368585604051808373ffffffffffffffffffffffffffffffffffffffff1673ffffffffffffffffffffffffffffffffffffffff16815260200180602001828103825283818151815260200191508051906020019080838360005b83811015612c11578082015181840152602081019050612bf6565b50505050905090810190601f168015612c3e5780820380516001836020036101000a031916815260200191505b50935050505060405180910390a184600360008773ffffffffffffffffffffffffffffffffffffffff1673ffffffffffffffffffffffffffffffffffffffff168152602001908152602001600020600001600360008873ffffffffffffffffffffffffffffffffffffffff1673ffffffffffffffffffffffffffffffffffffffff16815260200190815260200160002060030160009054906101000a900460ff16818054600181600116156101000203166002900480601f016020809104026020016040519081016040528092919081815260200182805460018160011615610100020316600290048015612d745780601f10612d4957610100808354040283529160200191612d74565b820191906000526020600020905b815481529060010190602001808311612d5757829003601f168201915b505050505091509250925092509250925092565b60006060600083600360008673ffffffffffffffffffffffffffffffffffffffff1673ffffffffffffffffffffffffffffffffffffffff168152602001908152602001600020600001600360008773ffffffffffffffffffffffffffffffffffffffff1673ffffffffffffffffffffffffffffffffffffffff16815260200190815260200160002060030160009054906101000a900460ff16818054600181600116156101000203166002900480601f016020809104026020016040519081016040528092919081815260200182805460018160011615610100020316600290048015612eb65780601f10612e8b57610100808354040283529160200191612eb6565b820191906000526020600020905b815481529060010190602001808311612e9957829003601f168201915b505050505091509250925092509193909250565b6000600360008373ffffffffffffffffffffffffffffffffffffffff1673ffffffffffffffffffffffffffffffffffffffff168152602001908152602001600020600201805490509050919050565b828054600181600116156101000203166002900490600052602060002090601f016020900481019282601f10612f5a57805160ff1916838001178555612f88565b82800160010185558215612f88579182015b82811115612f87578251825591602001919060010190612f6c565b5b509050612f95919061304c565b5090565b828054600181600116156101000203166002900490600052602060002090601f016020900481019282601f10612fd2578054855561300f565b8280016001018555821561300f57600052602060002091601f016020900482015b8281111561300e578254825591600101919060010190612ff3565b5b50905061301c919061304c565b5090565b815481835581811115613047578183600052602060002091820191016130469190613071565b5b505050565b61306e91905b8082111561306a576000816000905550600101613052565b5090565b90565b61309a91905b80821115613096576000818161308d919061309d565b50600101613077565b5090565b90565b50805460018160011615610100020316600290046000825580601f106130c357506130e2565b601f0160209004906000526020600020908101906130e1919061304c565b5b505600a165627a7a72305820792ca43b1b8609c4ca4e2e1424bc608d131cbb4a16e43ba485527cde69ef16050029",
  "source": "pragma solidity ^0.4.21;\n\ncontract WineHouse {\n    address public owner;\n    mapping (string => WineData) private wines;\n    mapping (address => bool) private trustedPartners;\n    mapping (address => OwnerInfo) private wineOwners;\n    string[] private wineIndices;\n    \n    constructor() public {\n        owner = msg.sender;\n    }\n    \n    struct OwnerInfo {\n        string name;\n        mapping (string => bool) wines;\n        string[] ownedWines;\n        bool isActive;\n    }\n    \n    struct WineData {\n        string cork;\n        string capsule;\n        string glass;\n        string frontLabel;\n        string backLabel;\n        string bottle;\n        address currentOwner;\n        address[] ownerHistory;\n        uint index;\n        bool isActive;\n    }\n    \n    modifier onlyMaster() {\n        require(msg.sender == owner);\n        _;\n    }\n    \n    modifier onlyTrustedPartner() {\n        require(trustedPartners[msg.sender] == true);\n        _;\n    }\n    \n    modifier onlyAssetOwner(string _uniqueIdentifier) {\n        require(wineOwners[msg.sender].wines[_uniqueIdentifier] == true);\n        _;\n    }\n\n    modifier wineShouldNotExist(string _uniqueIdentifier) {\n        require(wines[_uniqueIdentifier].isActive == false);\n        _;\n    }\n\n    modifier recipientShouldExist(address _recipient) {\n        require(wineOwners[_recipient].isActive == true);\n        _;\n    }\n    \n    function getWineCount() view public returns (uint count) {\n        return wineIndices.length;\n    }\n\n    function getOwnedWineCountOf(address _wineOwner) view public returns (uint) {\n        return wineOwners[_wineOwner].ownedWines.length;\n    }\n\n    function getWineIdentifierAt(address _wineOwner, uint _index) view public returns (string) {\n        return wineOwners[_wineOwner].ownedWines[_index];\n    }\n\n    function getOwnerHistoryAt(string _uniqueIdentifier, uint _index) view public returns (address) {\n        return wines[_uniqueIdentifier].ownerHistory[_index];\n    }\n\n    event NewWineOwner(address _ownerAddress, string _name);\n    event NewTrustedPartner(address _partnerAddress, string _name);\n    event RemovedTrustedPartner(address _partnerAddress);\n    event NewWine(string _uniqueIdentifier);\n    event WineTransfer(address _to, string _uniqueIdentifier);\n    \n    // ===============================================================\n    \n    function registerWineOwner(\n        address _ownerAddress, \n        string _name\n        ) public onlyMaster\n        returns (\n            address, string, bool\n        ) {\n        \n        wineOwners[_ownerAddress].name = _name;\n        wineOwners[_ownerAddress].isActive = true;\n\n        emit NewWineOwner(_ownerAddress, _name);\n\n        return (\n            _ownerAddress, \n            wineOwners[_ownerAddress].name, \n            wineOwners[_ownerAddress].isActive\n        );\n\n    }\n\n    function getWineOwner(address _ownerAddress) view public returns (address, string, bool) {\n        return (\n            _ownerAddress,\n            wineOwners[_ownerAddress].name,\n            wineOwners[_ownerAddress].isActive\n        );\n    }\n    \n    function addTrustedPartner(address _partnerAddress, string _name) public onlyMaster returns (address, bool) {\n        trustedPartners[_partnerAddress] = true;\n        wineOwners[_partnerAddress].name = _name;\n        wineOwners[_partnerAddress].isActive = true;\n        registerWineOwner(_partnerAddress, _name);\n        \n        emit NewTrustedPartner(_partnerAddress, _name);\n\n        return (_partnerAddress, trustedPartners[_partnerAddress]);\n    }\n\n    function getTrustedPartner(address _partner) view public returns (address, bool) {\n        return (_partner, trustedPartners[_partner]);\n    }\n    \n    function removeTrustedPartner(address _partner) public onlyMaster returns (address ,bool) {\n        trustedPartners[_partner] = false;\n\n        emit RemovedTrustedPartner(_partner);\n\n        return (_partner, trustedPartners[_partner]);\n    }\n    \n    function createWine(\n        string _cork,\n        string _capsule,\n        string _glass,\n        string _frontLabel,\n        string _backLabel,\n        string _bottle,\n        string _uniqueIdentifier\n    ) public onlyTrustedPartner wineShouldNotExist(_uniqueIdentifier)\n        returns (\n            uint index, \n            string uniqueIdentifier, \n            bool isActive\n        ) {\n        wines[_uniqueIdentifier].cork = _cork;\n        wines[_uniqueIdentifier].capsule = _capsule;\n        wines[_uniqueIdentifier].glass = _glass;\n        wines[_uniqueIdentifier].frontLabel = _frontLabel;\n        wines[_uniqueIdentifier].backLabel = _backLabel;\n        wines[_uniqueIdentifier].bottle = _bottle;\n        \n        wines[_uniqueIdentifier].currentOwner = msg.sender;\n        \n        wines[_uniqueIdentifier].isActive = true;\n        wines[_uniqueIdentifier].index = wineIndices.length;\n        wineIndices.push(_uniqueIdentifier);\n        wineOwners[msg.sender].wines[_uniqueIdentifier] = true;\n        wineOwners[msg.sender].ownedWines.push(_uniqueIdentifier);\n\n        emit NewWine(_uniqueIdentifier);\n        \n        return (wineIndices.length - 1, _uniqueIdentifier, wines[_uniqueIdentifier].isActive);\n    }\n    \n    function transferWine(address _to, string _uniqueIdentifier) public onlyAssetOwner(_uniqueIdentifier) recipientShouldExist(_to) {\n        wines[_uniqueIdentifier].ownerHistory.push(wines[_uniqueIdentifier].currentOwner);\n        wines[_uniqueIdentifier].currentOwner = _to;\n\n        uint totalElementCount = getOwnedWineCountOf(msg.sender);\n        uint index = 0;\n        for (index = 0; index <= totalElementCount; index++) {\n            require(index != totalElementCount);\n            if (keccak256(wineOwners[msg.sender].ownedWines[index]) == keccak256(_uniqueIdentifier)) {\n                break;\n            }\n        }\n\n        string storage lastElement = wineOwners[msg.sender].ownedWines[totalElementCount - 1];\n        wineOwners[msg.sender].ownedWines[index] = lastElement;\n        wineOwners[msg.sender].ownedWines.length = totalElementCount - 1;\n\n        wineOwners[_to].ownedWines.push(_uniqueIdentifier);\n\n        emit WineTransfer(_to, _uniqueIdentifier);\n    }\n    \n    function retrieveWineData(string _uniqueIdentifier) view public \n        returns (\n            string cork,\n            string capsule,\n            string glass,\n            string frontLabel,\n            string backLabel,\n            string bottle,\n            address currentOwner\n        ) {\n        return (\n            wines[_uniqueIdentifier].cork,\n            wines[_uniqueIdentifier].capsule,\n            wines[_uniqueIdentifier].glass,\n            wines[_uniqueIdentifier].frontLabel,\n            wines[_uniqueIdentifier].backLabel,\n            wines[_uniqueIdentifier].bottle,\n            wines[_uniqueIdentifier].currentOwner\n        );   \n    }\n}",
  "sourcePath": "/home/android-m8d8y15/WINE-HOUSE/solidity/contracts/WineHouse.sol",
  "compiler": {
    "name": "solc",
    "version": "0.4.23+commit.124ca40d.Emscripten.clang"
  },
  "schemaVersion": "2.0.0",
  "updatedAt": "2018-06-11T13:47:33.517Z"
}