{
  "contractName": "WineHouse",
  "abi": [
    {
      "constant": true,
      "inputs": [],
      "name": "owner",
      "outputs": [
        {
          "name": "",
          "type": "address"
        }
      ],
      "payable": false,
      "stateMutability": "view",
      "type": "function"
    },
    {
      "inputs": [],
      "payable": false,
      "stateMutability": "nonpayable",
      "type": "constructor"
    },
    {
      "anonymous": false,
      "inputs": [
        {
          "indexed": false,
          "name": "_ownerAddress",
          "type": "address"
        },
        {
          "indexed": false,
          "name": "_name",
          "type": "string"
        }
      ],
      "name": "NewWineOwner",
      "type": "event"
    },
    {
      "anonymous": false,
      "inputs": [
        {
          "indexed": false,
          "name": "_partnerAddress",
          "type": "address"
        },
        {
          "indexed": false,
          "name": "_name",
          "type": "string"
        }
      ],
      "name": "NewTrustedPartner",
      "type": "event"
    },
    {
      "anonymous": false,
      "inputs": [
        {
          "indexed": false,
          "name": "_partnerAddress",
          "type": "address"
        }
      ],
      "name": "RemovedTrustedPartner",
      "type": "event"
    },
    {
      "anonymous": false,
      "inputs": [
        {
          "indexed": false,
          "name": "_uniqueIdentifier",
          "type": "string"
        }
      ],
      "name": "NewWine",
      "type": "event"
    },
    {
      "anonymous": false,
      "inputs": [
        {
          "indexed": false,
          "name": "_to",
          "type": "address"
        },
        {
          "indexed": false,
          "name": "_uniqueIdentifier",
          "type": "string"
        }
      ],
      "name": "WineTransfer",
      "type": "event"
    },
    {
      "constant": true,
      "inputs": [],
      "name": "getWineCount",
      "outputs": [
        {
          "name": "count",
          "type": "uint256"
        }
      ],
      "payable": false,
      "stateMutability": "view",
      "type": "function"
    },
    {
      "constant": true,
      "inputs": [
        {
          "name": "_wineOwner",
          "type": "address"
        }
      ],
      "name": "getOwnedWineCountOf",
      "outputs": [
        {
          "name": "",
          "type": "uint256"
        }
      ],
      "payable": false,
      "stateMutability": "view",
      "type": "function"
    },
    {
      "constant": true,
      "inputs": [
        {
          "name": "_wineOwner",
          "type": "address"
        },
        {
          "name": "_index",
          "type": "uint256"
        }
      ],
      "name": "getWineIdentifierAt",
      "outputs": [
        {
          "name": "",
          "type": "string"
        }
      ],
      "payable": false,
      "stateMutability": "view",
      "type": "function"
    },
    {
      "constant": true,
      "inputs": [
        {
          "name": "_uniqueIdentifier",
          "type": "string"
        },
        {
          "name": "_index",
          "type": "uint256"
        }
      ],
      "name": "getOwnerHistoryAt",
      "outputs": [
        {
          "name": "",
          "type": "address"
        }
      ],
      "payable": false,
      "stateMutability": "view",
      "type": "function"
    },
    {
      "constant": true,
      "inputs": [
        {
          "name": "_uniqueIdentifier",
          "type": "string"
        }
      ],
      "name": "getOwnerHistoryCountOf",
      "outputs": [
        {
          "name": "count",
          "type": "uint256"
        }
      ],
      "payable": false,
      "stateMutability": "view",
      "type": "function"
    },
    {
      "constant": false,
      "inputs": [
        {
          "name": "_ownerAddress",
          "type": "address"
        },
        {
          "name": "_name",
          "type": "string"
        },
        {
          "name": "_proofOfIdentity",
          "type": "string"
        }
      ],
      "name": "registerWineOwner",
      "outputs": [
        {
          "name": "",
          "type": "address"
        },
        {
          "name": "",
          "type": "string"
        },
        {
          "name": "",
          "type": "bool"
        }
      ],
      "payable": false,
      "stateMutability": "nonpayable",
      "type": "function"
    },
    {
      "constant": true,
      "inputs": [
        {
          "name": "_ownerAddress",
          "type": "address"
        }
      ],
      "name": "getWineOwner",
      "outputs": [
        {
          "name": "",
          "type": "address"
        },
        {
          "name": "",
          "type": "string"
        },
        {
          "name": "",
          "type": "bool"
        }
      ],
      "payable": false,
      "stateMutability": "view",
      "type": "function"
    },
    {
      "constant": false,
      "inputs": [
        {
          "name": "_partnerAddress",
          "type": "address"
        },
        {
          "name": "_name",
          "type": "string"
        },
        {
          "name": "_proofOfIdentity",
          "type": "string"
        }
      ],
      "name": "addTrustedPartner",
      "outputs": [
        {
          "name": "",
          "type": "address"
        },
        {
          "name": "",
          "type": "bool"
        }
      ],
      "payable": false,
      "stateMutability": "nonpayable",
      "type": "function"
    },
    {
      "constant": true,
      "inputs": [
        {
          "name": "_partner",
          "type": "address"
        }
      ],
      "name": "getTrustedPartner",
      "outputs": [
        {
          "name": "",
          "type": "address"
        },
        {
          "name": "",
          "type": "bool"
        }
      ],
      "payable": false,
      "stateMutability": "view",
      "type": "function"
    },
    {
      "constant": false,
      "inputs": [
        {
          "name": "_partner",
          "type": "address"
        }
      ],
      "name": "removeTrustedPartner",
      "outputs": [
        {
          "name": "",
          "type": "address"
        },
        {
          "name": "",
          "type": "bool"
        }
      ],
      "payable": false,
      "stateMutability": "nonpayable",
      "type": "function"
    },
    {
      "constant": false,
      "inputs": [
        {
          "name": "_cork",
          "type": "string"
        },
        {
          "name": "_capsule",
          "type": "string"
        },
        {
          "name": "_glass",
          "type": "string"
        },
        {
          "name": "_frontLabel",
          "type": "string"
        },
        {
          "name": "_backLabel",
          "type": "string"
        },
        {
          "name": "_bottle",
          "type": "string"
        },
        {
          "name": "_uniqueIdentifier",
          "type": "string"
        }
      ],
      "name": "createWine",
      "outputs": [
        {
          "name": "index",
          "type": "uint256"
        },
        {
          "name": "uniqueIdentifier",
          "type": "string"
        },
        {
          "name": "isActive",
          "type": "bool"
        }
      ],
      "payable": false,
      "stateMutability": "nonpayable",
      "type": "function"
    },
    {
      "constant": false,
      "inputs": [
        {
          "name": "_to",
          "type": "address"
        },
        {
          "name": "_uniqueIdentifier",
          "type": "string"
        }
      ],
      "name": "transferWine",
      "outputs": [],
      "payable": false,
      "stateMutability": "nonpayable",
      "type": "function"
    },
    {
      "constant": true,
      "inputs": [
        {
          "name": "_uniqueIdentifier",
          "type": "string"
        }
      ],
      "name": "retrieveWineData",
      "outputs": [
        {
          "name": "cork",
          "type": "string"
        },
        {
          "name": "capsule",
          "type": "string"
        },
        {
          "name": "glass",
          "type": "string"
        },
        {
          "name": "frontLabel",
          "type": "string"
        },
        {
          "name": "backLabel",
          "type": "string"
        },
        {
          "name": "bottle",
          "type": "string"
        },
        {
          "name": "currentOwner",
          "type": "address"
        }
      ],
      "payable": false,
      "stateMutability": "view",
      "type": "function"
    }
  ],
  "bytecode": "0x608060405234801561001057600080fd5b50336000806101000a81548173ffffffffffffffffffffffffffffffffffffffff021916908373ffffffffffffffffffffffffffffffffffffffff160217905550613350806100606000396000f3006080604052600436106100d0576000357c0100000000000000000000000000000000000000000000000000000000900463ffffffff16806305a8c397146100d55780631a1f383a146104065780633813a7f21461069e57806341cbd6ea1461076457806346984489146107f25780635cae7767146108a55780638da5cb5b146109335780639c4fc41a1461098a578063a052c595146109b5578063a862077b14610acf578063a9aac3e414610b58578063cde25f8a14610cde578063e1f8c56514610dd8578063eee1f5f914610e55575b600080fd5b3480156100e157600080fd5b5061013c600480360381019080803590602001908201803590602001908080601f0160208091040260200160405190810160405280939291908181526020018383808284378201915050505050509192919290505050610eac565b604051808060200180602001806020018060200180602001806020018873ffffffffffffffffffffffffffffffffffffffff1673ffffffffffffffffffffffffffffffffffffffff16815260200187810387528e818151815260200191508051906020019080838360005b838110156101c25780820151818401526020810190506101a7565b50505050905090810190601f1680156101ef5780820380516001836020036101000a031916815260200191505b5087810386528d818151815260200191508051906020019080838360005b8381101561022857808201518184015260208101905061020d565b50505050905090810190601f1680156102555780820380516001836020036101000a031916815260200191505b5087810385528c818151815260200191508051906020019080838360005b8381101561028e578082015181840152602081019050610273565b50505050905090810190601f1680156102bb5780820380516001836020036101000a031916815260200191505b5087810384528b818151815260200191508051906020019080838360005b838110156102f45780820151818401526020810190506102d9565b50505050905090810190601f1680156103215780820380516001836020036101000a031916815260200191505b5087810383528a818151815260200191508051906020019080838360005b8381101561035a57808201518184015260208101905061033f565b50505050905090810190601f1680156103875780820380516001836020036101000a031916815260200191505b50878103825289818151815260200191508051906020019080838360005b838110156103c05780820151818401526020810190506103a5565b50505050905090810190601f1680156103ed5780820380516001836020036101000a031916815260200191505b509d505050505050505050505050505060405180910390f35b34801561041257600080fd5b50610611600480360381019080803590602001908201803590602001908080601f0160208091040260200160405190810160405280939291908181526020018383808284378201915050505050509192919290803590602001908201803590602001908080601f0160208091040260200160405190810160405280939291908181526020018383808284378201915050505050509192919290803590602001908201803590602001908080601f0160208091040260200160405190810160405280939291908181526020018383808284378201915050505050509192919290803590602001908201803590602001908080601f0160208091040260200160405190810160405280939291908181526020018383808284378201915050505050509192919290803590602001908201803590602001908080601f0160208091040260200160405190810160405280939291908181526020018383808284378201915050505050509192919290803590602001908201803590602001908080601f0160208091040260200160405190810160405280939291908181526020018383808284378201915050505050509192919290803590602001908201803590602001908080601f016020809104026020016040519081016040528093929190818152602001838380828437820191505050505050919291929050505061159b565b604051808481526020018060200183151515158152602001828103825284818151815260200191508051906020019080838360005b83811015610661578082015181840152602081019050610646565b50505050905090810190601f16801561068e5780820380516001836020036101000a031916815260200191505b5094505050505060405180910390f35b3480156106aa57600080fd5b506106e9600480360381019080803573ffffffffffffffffffffffffffffffffffffffff16906020019092919080359060200190929190505050611e04565b6040518080602001828103825283818151815260200191508051906020019080838360005b8381101561072957808201518184015260208101905061070e565b50505050905090810190601f1680156107565780820380516001836020036101000a031916815260200191505b509250505060405180910390f35b34801561077057600080fd5b506107a5600480360381019080803573ffffffffffffffffffffffffffffffffffffffff169060200190929190505050611f00565b604051808373ffffffffffffffffffffffffffffffffffffffff1673ffffffffffffffffffffffffffffffffffffffff168152602001821515151581526020019250505060405180910390f35b3480156107fe57600080fd5b50610863600480360381019080803590602001908201803590602001908080601f016020809104026020016040519081016040528093929190818152602001838380828437820191505050505050919291929080359060200190929190505050611f5a565b604051808273ffffffffffffffffffffffffffffffffffffffff1673ffffffffffffffffffffffffffffffffffffffff16815260200191505060405180910390f35b3480156108b157600080fd5b506108e6600480360381019080803573ffffffffffffffffffffffffffffffffffffffff16906020019092919050505061200a565b604051808373ffffffffffffffffffffffffffffffffffffffff1673ffffffffffffffffffffffffffffffffffffffff168152602001821515151581526020019250505060405180910390f35b34801561093f57600080fd5b5061094861217a565b604051808273ffffffffffffffffffffffffffffffffffffffff1673ffffffffffffffffffffffffffffffffffffffff16815260200191505060405180910390f35b34801561099657600080fd5b5061099f61219f565b6040518082815260200191505060405180910390f35b3480156109c157600080fd5b50610a82600480360381019080803573ffffffffffffffffffffffffffffffffffffffff169060200190929190803590602001908201803590602001908080601f0160208091040260200160405190810160405280939291908181526020018383808284378201915050505050509192919290803590602001908201803590602001908080601f01602080910402602001604051908101604052809392919081815260200183838082843782019150505050505091929192905050506121ac565b604051808373ffffffffffffffffffffffffffffffffffffffff1673ffffffffffffffffffffffffffffffffffffffff168152602001821515151581526020019250505060405180910390f35b348015610adb57600080fd5b50610b56600480360381019080803573ffffffffffffffffffffffffffffffffffffffff169060200190929190803590602001908201803590602001908080601f01602080910402602001604051908101604052809392919081815260200183838082843782019150505050505091929192905050506124a3565b005b348015610b6457600080fd5b50610c25600480360381019080803573ffffffffffffffffffffffffffffffffffffffff169060200190929190803590602001908201803590602001908080601f0160208091040260200160405190810160405280939291908181526020018383808284378201915050505050509192919290803590602001908201803590602001908080601f0160208091040260200160405190810160405280939291908181526020018383808284378201915050505050509192919290505050612bd4565b604051808473ffffffffffffffffffffffffffffffffffffffff1673ffffffffffffffffffffffffffffffffffffffff1681526020018060200183151515158152602001828103825284818151815260200191508051906020019080838360005b83811015610ca1578082015181840152602081019050610c86565b50505050905090810190601f168015610cce5780820380516001836020036101000a031916815260200191505b5094505050505060405180910390f35b348015610cea57600080fd5b50610d1f600480360381019080803573ffffffffffffffffffffffffffffffffffffffff169060200190929190505050612f4c565b604051808473ffffffffffffffffffffffffffffffffffffffff1673ffffffffffffffffffffffffffffffffffffffff1681526020018060200183151515158152602001828103825284818151815260200191508051906020019080838360005b83811015610d9b578082015181840152602081019050610d80565b50505050905090810190601f168015610dc85780820380516001836020036101000a031916815260200191505b5094505050505060405180910390f35b348015610de457600080fd5b50610e3f600480360381019080803590602001908201803590602001908080601f016020809104026020016040519081016040528093929190818152602001838380828437820191505050505050919291929050505061308e565b6040518082815260200191505060405180910390f35b348015610e6157600080fd5b50610e96600480360381019080803573ffffffffffffffffffffffffffffffffffffffff169060200190929190505050613109565b6040518082815260200191505060405180910390f35b60608060608060608060006001886040518082805190602001908083835b602083101515610eef5780518252602082019150602081019050602083039250610eca565b6001836020036101000a03801982511681845116808217855250505050505090500191505090815260200160405180910390206000016001896040518082805190602001908083835b602083101515610f5d5780518252602082019150602081019050602083039250610f38565b6001836020036101000a038019825116818451168082178552505050505050905001915050908152602001604051809103902060010160018a6040518082805190602001908083835b602083101515610fcb5780518252602082019150602081019050602083039250610fa6565b6001836020036101000a038019825116818451168082178552505050505050905001915050908152602001604051809103902060020160018b6040518082805190602001908083835b6020831015156110395780518252602082019150602081019050602083039250611014565b6001836020036101000a038019825116818451168082178552505050505050905001915050908152602001604051809103902060030160018c6040518082805190602001908083835b6020831015156110a75780518252602082019150602081019050602083039250611082565b6001836020036101000a038019825116818451168082178552505050505050905001915050908152602001604051809103902060040160018d6040518082805190602001908083835b60208310151561111557805182526020820191506020810190506020830392506110f0565b6001836020036101000a038019825116818451168082178552505050505050905001915050908152602001604051809103902060050160018e6040518082805190602001908083835b602083101515611183578051825260208201915060208101905060208303925061115e565b6001836020036101000a038019825116818451168082178552505050505050905001915050908152602001604051809103902060060160009054906101000a900473ffffffffffffffffffffffffffffffffffffffff16868054600181600116156101000203166002900480601f01602080910402602001604051908101604052809291908181526020018280546001816001161561010002031660029004801561126f5780601f106112445761010080835404028352916020019161126f565b820191906000526020600020905b81548152906001019060200180831161125257829003601f168201915b50505050509650858054600181600116156101000203166002900480601f01602080910402602001604051908101604052809291908181526020018280546001816001161561010002031660029004801561130b5780601f106112e05761010080835404028352916020019161130b565b820191906000526020600020905b8154815290600101906020018083116112ee57829003601f168201915b50505050509550848054600181600116156101000203166002900480601f0160208091040260200160405190810160405280929190818152602001828054600181600116156101000203166002900480156113a75780601f1061137c576101008083540402835291602001916113a7565b820191906000526020600020905b81548152906001019060200180831161138a57829003601f168201915b50505050509450838054600181600116156101000203166002900480601f0160208091040260200160405190810160405280929190818152602001828054600181600116156101000203166002900480156114435780601f1061141857610100808354040283529160200191611443565b820191906000526020600020905b81548152906001019060200180831161142657829003601f168201915b50505050509350828054600181600116156101000203166002900480601f0160208091040260200160405190810160405280929190818152602001828054600181600116156101000203166002900480156114df5780601f106114b4576101008083540402835291602001916114df565b820191906000526020600020905b8154815290600101906020018083116114c257829003601f168201915b50505050509250818054600181600116156101000203166002900480601f01602080910402602001604051908101604052809291908181526020018280546001816001161561010002031660029004801561157b5780601f106115505761010080835404028352916020019161157b565b820191906000526020600020905b81548152906001019060200180831161155e57829003601f168201915b505050505091509650965096509650965096509650919395979092949650565b60006060600060011515600260003373ffffffffffffffffffffffffffffffffffffffff1673ffffffffffffffffffffffffffffffffffffffff16815260200190815260200160002060009054906101000a900460ff16151514151561160057600080fd5b83600015156001826040518082805190602001908083835b60208310151561163d5780518252602082019150602081019050602083039250611618565b6001836020036101000a038019825116818451168082178552505050505050905001915050908152602001604051809103902060090160009054906101000a900460ff16151514151561168f57600080fd5b8a6001866040518082805190602001908083835b6020831015156116c857805182526020820191506020810190506020830392506116a3565b6001836020036101000a03801982511681845116808217855250505050505090500191505090815260200160405180910390206000019080519060200190611711929190613158565b50896001866040518082805190602001908083835b60208310151561174b5780518252602082019150602081019050602083039250611726565b6001836020036101000a03801982511681845116808217855250505050505090500191505090815260200160405180910390206001019080519060200190611794929190613158565b50886001866040518082805190602001908083835b6020831015156117ce57805182526020820191506020810190506020830392506117a9565b6001836020036101000a03801982511681845116808217855250505050505090500191505090815260200160405180910390206002019080519060200190611817929190613158565b50876001866040518082805190602001908083835b602083101515611851578051825260208201915060208101905060208303925061182c565b6001836020036101000a0380198251168184511680821785525050505050509050019150509081526020016040518091039020600301908051906020019061189a929190613158565b50866001866040518082805190602001908083835b6020831015156118d457805182526020820191506020810190506020830392506118af565b6001836020036101000a0380198251168184511680821785525050505050509050019150509081526020016040518091039020600401908051906020019061191d929190613158565b50856001866040518082805190602001908083835b6020831015156119575780518252602082019150602081019050602083039250611932565b6001836020036101000a038019825116818451168082178552505050505050905001915050908152602001604051809103902060050190805190602001906119a0929190613158565b50336001866040518082805190602001908083835b6020831015156119da57805182526020820191506020810190506020830392506119b5565b6001836020036101000a038019825116818451168082178552505050505050905001915050908152602001604051809103902060060160006101000a81548173ffffffffffffffffffffffffffffffffffffffff021916908373ffffffffffffffffffffffffffffffffffffffff160217905550600180866040518082805190602001908083835b602083101515611a875780518252602082019150602081019050602083039250611a62565b6001836020036101000a038019825116818451168082178552505050505050905001915050908152602001604051809103902060090160006101000a81548160ff0219169083151502179055506004805490506001866040518082805190602001908083835b602083101515611b125780518252602082019150602081019050602083039250611aed565b6001836020036101000a0380198251168184511680821785525050505050509050019150509081526020016040518091039020600801819055506004859080600181540180825580915050906001820390600052602060002001600090919290919091509080519060200190611b89929190613158565b50506001600360003373ffffffffffffffffffffffffffffffffffffffff1673ffffffffffffffffffffffffffffffffffffffff168152602001908152602001600020600101866040518082805190602001908083835b602083101515611c055780518252602082019150602081019050602083039250611be0565b6001836020036101000a038019825116818451168082178552505050505050905001915050908152602001604051809103902060006101000a81548160ff021916908315150217905550600360003373ffffffffffffffffffffffffffffffffffffffff1673ffffffffffffffffffffffffffffffffffffffff168152602001908152602001600020600201859080600181540180825580915050906001820390600052602060002001600090919290919091509080519060200190611ccc929190613158565b50507fc5c4e60c1bbf517a7aef27d8345fe6ba523d9b4192b478d853a41a865a2647fb856040518080602001828103825283818151815260200191508051906020019080838360005b83811015611d30578082015181840152602081019050611d15565b50505050905090810190601f168015611d5d5780820380516001836020036101000a031916815260200191505b509250505060405180910390a1600160048054905003856001876040518082805190602001908083835b602083101515611dac5780518252602082019150602081019050602083039250611d87565b6001836020036101000a038019825116818451168082178552505050505050905001915050908152602001604051809103902060090160009054906101000a900460ff16935093509350509750975097945050505050565b6060600360008473ffffffffffffffffffffffffffffffffffffffff1673ffffffffffffffffffffffffffffffffffffffff16815260200190815260200160002060020182815481101515611e5557fe5b906000526020600020018054600181600116156101000203166002900480601f016020809104026020016040519081016040528092919081815260200182805460018160011615610100020316600290048015611ef35780601f10611ec857610100808354040283529160200191611ef3565b820191906000526020600020905b815481529060010190602001808311611ed657829003601f168201915b5050505050905092915050565b60008082600260008573ffffffffffffffffffffffffffffffffffffffff1673ffffffffffffffffffffffffffffffffffffffff16815260200190815260200160002060009054906101000a900460ff1691509150915091565b60006001836040518082805190602001908083835b602083101515611f945780518252602082019150602081019050602083039250611f6f565b6001836020036101000a038019825116818451168082178552505050505050905001915050908152602001604051809103902060070182815481101515611fd757fe5b9060005260206000200160009054906101000a900473ffffffffffffffffffffffffffffffffffffffff16905092915050565b6000806000809054906101000a900473ffffffffffffffffffffffffffffffffffffffff1673ffffffffffffffffffffffffffffffffffffffff163373ffffffffffffffffffffffffffffffffffffffff1614151561206857600080fd5b6000600260008573ffffffffffffffffffffffffffffffffffffffff1673ffffffffffffffffffffffffffffffffffffffff16815260200190815260200160002060006101000a81548160ff0219169083151502179055507fa7c8fe5bc0df3d140e1fbc203a5e0d799f63207ed5b5766e691f89056a4bf95483604051808273ffffffffffffffffffffffffffffffffffffffff1673ffffffffffffffffffffffffffffffffffffffff16815260200191505060405180910390a182600260008573ffffffffffffffffffffffffffffffffffffffff1673ffffffffffffffffffffffffffffffffffffffff16815260200190815260200160002060009054906101000a900460ff1691509150915091565b6000809054906101000a900473ffffffffffffffffffffffffffffffffffffffff1681565b6000600480549050905090565b6000806000809054906101000a900473ffffffffffffffffffffffffffffffffffffffff1673ffffffffffffffffffffffffffffffffffffffff163373ffffffffffffffffffffffffffffffffffffffff1614151561220a57600080fd5b6001600260008773ffffffffffffffffffffffffffffffffffffffff1673ffffffffffffffffffffffffffffffffffffffff16815260200190815260200160002060006101000a81548160ff02191690831515021790555083600360008773ffffffffffffffffffffffffffffffffffffffff1673ffffffffffffffffffffffffffffffffffffffff16815260200190815260200160002060000190805190602001906122b8929190613158565b506001600360008773ffffffffffffffffffffffffffffffffffffffff1673ffffffffffffffffffffffffffffffffffffffff16815260200190815260200160002060030160006101000a81548160ff02191690831515021790555082600360008773ffffffffffffffffffffffffffffffffffffffff1673ffffffffffffffffffffffffffffffffffffffff168152602001908152602001600020600401908051906020019061236a929190613158565b50612376858585612bd4565b5050507fc4168fc24d026da668cfc85f6a651dad0d5fb01abf66062ee0b11cf60530a9f68585604051808373ffffffffffffffffffffffffffffffffffffffff1673ffffffffffffffffffffffffffffffffffffffff16815260200180602001828103825283818151815260200191508051906020019080838360005b8381101561240e5780820151818401526020810190506123f3565b50505050905090810190601f16801561243b5780820380516001836020036101000a031916815260200191505b50935050505060405180910390a184600260008773ffffffffffffffffffffffffffffffffffffffff1673ffffffffffffffffffffffffffffffffffffffff16815260200190815260200160002060009054906101000a900460ff1691509150935093915050565b60008060008360011515600360003373ffffffffffffffffffffffffffffffffffffffff1673ffffffffffffffffffffffffffffffffffffffff168152602001908152602001600020600101826040518082805190602001908083835b6020831015156125255780518252602082019150602081019050602083039250612500565b6001836020036101000a038019825116818451168082178552505050505050905001915050908152602001604051809103902060009054906101000a900460ff16151514151561257457600080fd5b60011515600360003373ffffffffffffffffffffffffffffffffffffffff1673ffffffffffffffffffffffffffffffffffffffff16815260200190815260200160002060030160009054906101000a900460ff1615151415156125d657600080fd5b6001856040518082805190602001908083835b60208310151561260e57805182526020820191506020810190506020830392506125e9565b6001836020036101000a03801982511681845116808217855250505050505090500191505090815260200160405180910390206007016001866040518082805190602001908083835b60208310151561267c5780518252602082019150602081019050602083039250612657565b6001836020036101000a038019825116818451168082178552505050505050905001915050908152602001604051809103902060060160009054906101000a900473ffffffffffffffffffffffffffffffffffffffff1690806001815401808255809150509060018203906000526020600020016000909192909190916101000a81548173ffffffffffffffffffffffffffffffffffffffff021916908373ffffffffffffffffffffffffffffffffffffffff16021790555050856001866040518082805190602001908083835b60208310151561276f578051825260208201915060208101905060208303925061274a565b6001836020036101000a038019825116818451168082178552505050505050905001915050908152602001604051809103902060060160006101000a81548173ffffffffffffffffffffffffffffffffffffffff021916908373ffffffffffffffffffffffffffffffffffffffff1602179055506127ec33613109565b935060009250600092505b83831115156129535783831415151561280f57600080fd5b846040518082805190602001908083835b6020831015156128455780518252602082019150602081019050602083039250612820565b6001836020036101000a038019825116818451168082178552505050505050905001915050604051809103902060001916600360003373ffffffffffffffffffffffffffffffffffffffff1673ffffffffffffffffffffffffffffffffffffffff168152602001908152602001600020600201848154811015156128c557fe5b90600052602060002001604051808280546001816001161561010002031660029004801561292a5780601f1061290857610100808354040283529182019161292a565b820191906000526020600020905b815481529060010190602001808311612916575b5050915050604051809103902060001916141561294657612953565b82806001019350506127f7565b600360003373ffffffffffffffffffffffffffffffffffffffff1673ffffffffffffffffffffffffffffffffffffffff168152602001908152602001600020600201600185038154811015156129a557fe5b90600052602060002001915081600360003373ffffffffffffffffffffffffffffffffffffffff1673ffffffffffffffffffffffffffffffffffffffff16815260200190815260200160002060020184815481101515612a0157fe5b906000526020600020019080546001816001161561010002031660029004612a2a9291906131d8565b5060018403600360003373ffffffffffffffffffffffffffffffffffffffff1673ffffffffffffffffffffffffffffffffffffffff16815260200190815260200160002060020181612a7c919061325f565b50600360008773ffffffffffffffffffffffffffffffffffffffff1673ffffffffffffffffffffffffffffffffffffffff168152602001908152602001600020600201859080600181540180825580915050906001820390600052602060002001600090919290919091509080519060200190612afa929190613158565b50507f54bf9864445e0d3b9c51c52a54244b8ff05dcada3037afdbbe3b45c3aad0d0a98686604051808373ffffffffffffffffffffffffffffffffffffffff1673ffffffffffffffffffffffffffffffffffffffff16815260200180602001828103825283818151815260200191508051906020019080838360005b83811015612b91578082015181840152602081019050612b76565b50505050905090810190601f168015612bbe5780820380516001836020036101000a031916815260200191505b50935050505060405180910390a1505050505050565b6000606060008060009054906101000a900473ffffffffffffffffffffffffffffffffffffffff1673ffffffffffffffffffffffffffffffffffffffff163373ffffffffffffffffffffffffffffffffffffffff16141515612c3557600080fd5b84600360008873ffffffffffffffffffffffffffffffffffffffff1673ffffffffffffffffffffffffffffffffffffffff1681526020019081526020016000206000019080519060200190612c8b929190613158565b506001600360008873ffffffffffffffffffffffffffffffffffffffff1673ffffffffffffffffffffffffffffffffffffffff16815260200190815260200160002060030160006101000a81548160ff02191690831515021790555083600360008873ffffffffffffffffffffffffffffffffffffffff1673ffffffffffffffffffffffffffffffffffffffff1681526020019081526020016000206004019080519060200190612d3d929190613158565b507f3f89ca8cf1638048276f9342a6f767e3fe64b000b403b933c5075fc982e463368686604051808373ffffffffffffffffffffffffffffffffffffffff1673ffffffffffffffffffffffffffffffffffffffff16815260200180602001828103825283818151815260200191508051906020019080838360005b83811015612dd3578082015181840152602081019050612db8565b50505050905090810190601f168015612e005780820380516001836020036101000a031916815260200191505b50935050505060405180910390a185600360008873ffffffffffffffffffffffffffffffffffffffff1673ffffffffffffffffffffffffffffffffffffffff168152602001908152602001600020600001600360008973ffffffffffffffffffffffffffffffffffffffff1673ffffffffffffffffffffffffffffffffffffffff16815260200190815260200160002060030160009054906101000a900460ff16818054600181600116156101000203166002900480601f016020809104026020016040519081016040528092919081815260200182805460018160011615610100020316600290048015612f365780601f10612f0b57610100808354040283529160200191612f36565b820191906000526020600020905b815481529060010190602001808311612f1957829003601f168201915b5050505050915092509250925093509350939050565b60006060600083600360008673ffffffffffffffffffffffffffffffffffffffff1673ffffffffffffffffffffffffffffffffffffffff168152602001908152602001600020600001600360008773ffffffffffffffffffffffffffffffffffffffff1673ffffffffffffffffffffffffffffffffffffffff16815260200190815260200160002060030160009054906101000a900460ff16818054600181600116156101000203166002900480601f01602080910402602001604051908101604052809291908181526020018280546001816001161561010002031660029004801561307a5780601f1061304f5761010080835404028352916020019161307a565b820191906000526020600020905b81548152906001019060200180831161305d57829003601f168201915b505050505091509250925092509193909250565b60006001826040518082805190602001908083835b6020831015156130c857805182526020820191506020810190506020830392506130a3565b6001836020036101000a0380198251168184511680821785525050505050509050019150509081526020016040518091039020600701805490509050919050565b6000600360008373ffffffffffffffffffffffffffffffffffffffff1673ffffffffffffffffffffffffffffffffffffffff168152602001908152602001600020600201805490509050919050565b828054600181600116156101000203166002900490600052602060002090601f016020900481019282601f1061319957805160ff19168380011785556131c7565b828001600101855582156131c7579182015b828111156131c65782518255916020019190600101906131ab565b5b5090506131d4919061328b565b5090565b828054600181600116156101000203166002900490600052602060002090601f016020900481019282601f10613211578054855561324e565b8280016001018555821561324e57600052602060002091601f016020900482015b8281111561324d578254825591600101919060010190613232565b5b50905061325b919061328b565b5090565b8154818355818111156132865781836000526020600020918201910161328591906132b0565b5b505050565b6132ad91905b808211156132a9576000816000905550600101613291565b5090565b90565b6132d991905b808211156132d557600081816132cc91906132dc565b506001016132b6565b5090565b90565b50805460018160011615610100020316600290046000825580601f106133025750613321565b601f016020900490600052602060002090810190613320919061328b565b5b505600a165627a7a723058203de8c3c53e1bb26f6f05cafd4ff39c43502b6c071bf26b34184c1f5192adcb470029",
  "source": "pragma solidity ^0.4.21;\n\ncontract WineHouse {\n    address public owner;\n    mapping (string => WineData) private wines;\n    mapping (address => bool) private trustedPartners;\n    mapping (address => OwnerInfo) private wineOwners;\n    string[] private wineIndices;\n    \n    constructor() public {\n        owner = msg.sender;\n    }\n    \n    struct OwnerInfo {\n        string name;\n        mapping (string => bool) wines;\n        string[] ownedWines;\n        bool isVerified;\n        string proofOfIdentity;\n    }\n    \n    struct WineData {\n        string cork;\n        string capsule;\n        string glass;\n        string frontLabel;\n        string backLabel;\n        string bottle;\n        address currentOwner;\n        address[] ownerHistory;\n        uint index;\n        bool isActive;\n    }\n    \n    modifier onlyMaster() {\n        require(msg.sender == owner);\n        _;\n    }\n    \n    modifier onlyTrustedPartner() {\n        require(trustedPartners[msg.sender] == true);\n        _;\n    }\n    \n    modifier onlyAssetOwner(string _uniqueIdentifier) {\n        require(wineOwners[msg.sender].wines[_uniqueIdentifier] == true);\n        _;\n    }\n    \n    modifier onlyVerified() {\n        require(wineOwners[msg.sender].isVerified == true);\n        _;\n    }\n\n    modifier wineShouldNotExist(string _uniqueIdentifier) {\n        require(wines[_uniqueIdentifier].isActive == false);\n        _;\n    }\n    \n    function getWineCount() view public returns (uint count) {\n        return wineIndices.length;\n    }\n\n    function getOwnedWineCountOf(address _wineOwner) view public returns (uint) {\n        return wineOwners[_wineOwner].ownedWines.length;\n    }\n\n    function getWineIdentifierAt(address _wineOwner, uint _index) view public returns (string) {\n        return wineOwners[_wineOwner].ownedWines[_index];\n    }\n\n    function getOwnerHistoryAt(string _uniqueIdentifier, uint _index) view public returns (address) {\n        return wines[_uniqueIdentifier].ownerHistory[_index];\n    }\n\n    function getOwnerHistoryCountOf(string _uniqueIdentifier) view public returns (uint count) {\n        return wines[_uniqueIdentifier].ownerHistory.length;\n    }\n\n    event NewWineOwner(address _ownerAddress, string _name);\n    event NewTrustedPartner(address _partnerAddress, string _name);\n    event RemovedTrustedPartner(address _partnerAddress);\n    event NewWine(string _uniqueIdentifier);\n    event WineTransfer(address _to, string _uniqueIdentifier);\n    \n    // ===============================================================\n    \n    function registerWineOwner(\n        address _ownerAddress, \n        string _name,\n        string _proofOfIdentity\n        ) public onlyMaster\n        returns (\n            address, string, bool\n        ) {\n        \n        wineOwners[_ownerAddress].name = _name;\n        wineOwners[_ownerAddress].isVerified = true;\n        wineOwners[_ownerAddress].proofOfIdentity = _proofOfIdentity;\n\n        emit NewWineOwner(_ownerAddress, _name);\n\n        return (\n            _ownerAddress, \n            wineOwners[_ownerAddress].name, \n            wineOwners[_ownerAddress].isVerified\n        );\n\n    }\n\n    function getWineOwner(address _ownerAddress) view public returns (address, string, bool) {\n        return (\n            _ownerAddress,\n            wineOwners[_ownerAddress].name,\n            wineOwners[_ownerAddress].isVerified\n        );\n    }\n    \n    function addTrustedPartner(address _partnerAddress, string _name, string _proofOfIdentity) public onlyMaster returns (address, bool) {\n        trustedPartners[_partnerAddress] = true;\n        wineOwners[_partnerAddress].name = _name;\n        wineOwners[_partnerAddress].isVerified = true;\n        wineOwners[_partnerAddress].proofOfIdentity = _proofOfIdentity;\n        registerWineOwner(_partnerAddress, _name, _proofOfIdentity);\n        \n        emit NewTrustedPartner(_partnerAddress, _name);\n\n        return (_partnerAddress, trustedPartners[_partnerAddress]);\n    }\n\n    function getTrustedPartner(address _partner) view public returns (address, bool) {\n        return (_partner, trustedPartners[_partner]);\n    }\n    \n    function removeTrustedPartner(address _partner) public onlyMaster returns (address ,bool) {\n        trustedPartners[_partner] = false;\n\n        emit RemovedTrustedPartner(_partner);\n\n        return (_partner, trustedPartners[_partner]);\n    }\n    \n    function createWine(\n        string _cork,\n        string _capsule,\n        string _glass,\n        string _frontLabel,\n        string _backLabel,\n        string _bottle,\n        string _uniqueIdentifier\n    ) public onlyTrustedPartner wineShouldNotExist(_uniqueIdentifier)\n        returns (\n            uint index, \n            string uniqueIdentifier, \n            bool isActive\n        ) {\n        wines[_uniqueIdentifier].cork = _cork;\n        wines[_uniqueIdentifier].capsule = _capsule;\n        wines[_uniqueIdentifier].glass = _glass;\n        wines[_uniqueIdentifier].frontLabel = _frontLabel;\n        wines[_uniqueIdentifier].backLabel = _backLabel;\n        wines[_uniqueIdentifier].bottle = _bottle;\n        \n        wines[_uniqueIdentifier].currentOwner = msg.sender;\n        \n        wines[_uniqueIdentifier].isActive = true;\n        wines[_uniqueIdentifier].index = wineIndices.length;\n        wineIndices.push(_uniqueIdentifier);\n        wineOwners[msg.sender].wines[_uniqueIdentifier] = true;\n        wineOwners[msg.sender].ownedWines.push(_uniqueIdentifier);\n\n        emit NewWine(_uniqueIdentifier);\n        \n        return (wineIndices.length - 1, _uniqueIdentifier, wines[_uniqueIdentifier].isActive);\n    }\n    \n    function transferWine(address _to, string _uniqueIdentifier) \n        public onlyAssetOwner(_uniqueIdentifier) onlyVerified() {\n            \n        wines[_uniqueIdentifier].ownerHistory.push(wines[_uniqueIdentifier].currentOwner);\n        wines[_uniqueIdentifier].currentOwner = _to;\n\n        uint totalElementCount = getOwnedWineCountOf(msg.sender);\n        uint index = 0;\n        for (index = 0; index <= totalElementCount; index++) {\n            require(index != totalElementCount);\n            if (keccak256(wineOwners[msg.sender].ownedWines[index]) == keccak256(_uniqueIdentifier)) {\n                break;\n            }\n        }\n\n        string storage lastElement = wineOwners[msg.sender].ownedWines[totalElementCount - 1];\n        wineOwners[msg.sender].ownedWines[index] = lastElement;\n        wineOwners[msg.sender].ownedWines.length = totalElementCount - 1;\n\n        wineOwners[_to].ownedWines.push(_uniqueIdentifier);\n\n        emit WineTransfer(_to, _uniqueIdentifier);\n    }\n    \n    function retrieveWineData(string _uniqueIdentifier) view public \n        returns (\n            string cork,\n            string capsule,\n            string glass,\n            string frontLabel,\n            string backLabel,\n            string bottle,\n            address currentOwner\n        ) {\n        return (\n            wines[_uniqueIdentifier].cork,\n            wines[_uniqueIdentifier].capsule,\n            wines[_uniqueIdentifier].glass,\n            wines[_uniqueIdentifier].frontLabel,\n            wines[_uniqueIdentifier].backLabel,\n            wines[_uniqueIdentifier].bottle,\n            wines[_uniqueIdentifier].currentOwner\n        );   \n    }\n}",
  "sourcePath": "/home/android-m8d8y15/WINE-HOUSE/solidity/contracts/WineHouse.sol",
  "compiler": {
    "name": "solc",
    "version": "0.4.23+commit.124ca40d.Emscripten.clang"
  },
  "schemaVersion": "2.0.0",
  "updatedAt": "2018-06-22T20:10:53.502Z"
}